:020000040000fa
:080000000001040000000000f3
:020000040000fa
:0400080050020000a2
:020000040000fa
:04000c00620200008c
:020000040000fa
:040010007202000078
:020000040000fa
:04001400580200008e
:020000040000fa
:040018006a02000078
:020000040000fa
:04001c00900200004e
:020000040000fa
:04002000900200004a
:020000040000fa
:040024009002000046
:020000040000fa
:040028009002000042
:020000040000fa
:04002c00900200003e
:020000040000fa
:04003000900200003a
:020000040000fa
:0400340018020000ae
:020000040000fa
:040038009002000032
:020000040000fa
:04003c00900200002e
:020000040000fa
:04004000900200002a
:020000040000fa
:040044009002000026
:020000040000fa
:040048009002000022
:020000040000fa
:04004c00900200001e
:020000040000fa
:04005000900200001a
:020000040000fa
:040054007a0200002c
:020000040000fa
:040058009002000012
:020000040000fa
:04005c00900200000e
:020000040000fa
:04006000900200000a
:020000040000fa
:040064009002000006
:020000040000fa
:040068009002000002
:020000040000fa
:04006c0090020000fe
:020000040000fa
:0400700090020000fa
:020000040000fa
:0400740090020000f6
:020000040000fa
:0400780090020000f2
:020000040000fa
:04007c0090020000ee
:020000040000fa
:0400800090020000ea
:020000040000fa
:0400840090020000e6
:020000040000fa
:0400880090020000e2
:020000040000fa
:04008c0090020000de
:020000040000fa
:0400900090020000da
:020000040000fa
:0400940090020000d6
:020000040000fa
:0400980090020000d2
:020000040000fa
:04009c0090020000ce
:020000040000fa
:0400a00090020000ca
:020000040000fa
:0400a40090020000c6
:020000040000fa
:0400a80090020000c2
:020000040000fa
:0400ac0090020000be
:020000040000fa
:0400b00090020000ba
:020000040000fa
:0400b40090020000b6
:020000040000fa
:0400b80090020000b2
:020000040000fa
:0400bc0090020000ae
:020000040000fa
:0400c00090020000aa
:020000040000fa
:0400c40090020000a6
:020000040000fa
:0400c80090020000a2
:020000040000fa
:0400cc00900200009e
:020000040000fa
:0400d000900200009a
:020000040000fa
:0400d4009002000096
:020000040000fa
:0400d8009002000092
:020000040000fa
:0400dc00900200008e
:020000040000fa
:0400e000900200008a
:020000040000fa
:0400e4009002000086
:020000040000fa
:0400e8009002000082
:020000040000fa
:0400ec00900200007e
:020000040000fa
:0400f000900200007a
:020000040000fa
:0400f4009002000076
:020000040000fa
:0400f8009002000072
:020000040000fa
:0400fc00900200006e
:020000040000fa
:040100009002000069
:020000040000fa
:040104009002000065
:020000040000fa
:040108009002000061
:020000040000fa
:04010c00900200005d
:020000040000fa
:040110009002000059
:020000040000fa
:040114009002000055
:020000040000fa
:040118009002000051
:020000040000fa
:04011c00900200004d
:020000040000fa
:040120009002000049
:020000040000fa
:040124009002000045
:020000040000fa
:040128009002000041
:020000040000fa
:04012c00900200003d
:020000040000fa
:040130009002000039
:020000040000fa
:040134009002000035
:020000040000fa
:040138009002000031
:020000040000fa
:04013c00900200002d
:020000040000fa
:040140009002000029
:020000040000fa
:040144009002000025
:020000040000fa
:040148009002000021
:020000040000fa
:04014c00900200001d
:020000040000fa
:040150009002000019
:020000040000fa
:040154009002000015
:020000040000fa
:040158009002000011
:020000040000fa
:04015c00900200000d
:020000040000fa
:040160009002000009
:020000040000fa
:040164009002000005
:020000040000fa
:040168009002000001
:020000040000fa
:04016c0090020000fd
:020000040000fa
:0401700090020000f9
:020000040000fa
:0401740090020000f5
:020000040000fa
:0401780090020000f1
:020000040000fa
:04017c0090020000ed
:020000040000fa
:0401800090020000e9
:020000040000fa
:0401840090020000e5
:020000040000fa
:0401880090020000e1
:020000040000fa
:04018c0090020000dd
:020000040000fa
:0401900090020000d9
:020000040000fa
:0401940090020000d5
:020000040000fa
:0401980090020000d1
:020000040000fa
:04019c0090020000cd
:020000040000fa
:0401a00090020000c9
:020000040000fa
:0401a40090020000c5
:020000040000fa
:0401a80090020000c1
:020000040000fa
:0401ac0090020000bd
:020000040000fa
:0401b00090020000b9
:020000040000fa
:0401b40090020000b5
:020000040000fa
:0401b80090020000b1
:020000040000fa
:0401bc0090020000ad
:020000040000fa
:0401c00090020000a9
:020000040000fa
:0401c40090020000a5
:020000040000fa
:0401c80090020000a1
:020000040000fa
:0401cc00900200009d
:020000040000fa
:0401d0009002000099
:020000040000fa
:0401d4009002000095
:020000040000fa
:0401d8009002000091
:020000040000fa
:0401dc00900200008d
:020000040000fa
:0401e0009002000089
:020000040000fa
:0401e4009002000085
:020000040000fa
:0401e8009002000081
:020000040000fa
:0401ec00900200007d
:020000040000fa
:0401f0009002000079
:020000040000fa
:0401f4009002000075
:020000040000fa
:0401f8009002000071
:020000040000fa
:0401fc00900200006d
:020000040000fa
:10020000afd321000e7f24000e0188000000000003
:10021000000020000000e000020032000001200089
:100220002002880014000700bf0007000000e00063
:1002300003003a00004523000100200002003700bf
:100240000000200001002000810f7000010032003a
:1002500014000700000020000000e000020032004f
:10026000000002000000000018370200000000003b
:100270000040da000000fe004440a9000006200013
:100280000000e00003003200002020009001880000
:100290004440a800000006008a1f78008b1f7800e9
:1002a00000000600a1028800800478000000eb0036
:1002b0001f003700e284440054a0b4009905ba003e
:1002c000e284440054a0b4009906ba00e2844400d9
:1002d00054a0b4000006eb00476fde00fd07b2003b
:1002e000ae018800636ce10003003a00eaff0700fa
:1002f0000000eb000e003700606ce10008003a00df
:10030000004deb000a05e800020039003420ec0043
:100310000af0a0008b05e900f9ff3e000400370059
:100320006168e100010032000086eb000b0007006d
:1003300019c7ba001905ba000e04e00003003a001c
:100340000a00e000dbff3a0000000600fe07b200f2
:10035000ae0288008a047800f5ff37000cd0a300b5
:10036000e20f4d001c00390089027800354dba00bb
:100370000a05e800020039003420ec000af0a00071
:100380008b05e9000f003200254dba000a05e80090
:10039000020039003420ec000af0a0008b05e900cf
:1003a000080032000c00e0000600320015cdba0053
:1003b0000a05e800020039003420ec000af0a00031
:1003c0008b05e9008984e80054a0b4000b00e0002c
:1003d000e2ff3a00000006009902ba00055d7800cd
:1003e0008b05e900f7ff3200c82ade00055d7800c2
:1003f0008b05e900f3ff32000c00e000f1ff320052
:1004000019ddba00eeff37001214040000000000ee
:100410007027040000000000e63004000000000027
:1004200012360400000000004e36040000000000f8
:100430003600f800809fbe00829fbe00849fbe00f1
:10044000869fbe003200f8003400f8001000200043
:10045000a001880000202000900188000000fa0020
:100460008860a900360707000000e00003003200a2
:100470004e35020000000000000000000080fa007d
:100480003400f9003200f9004f03be004f02be00f5
:100490004f01be004f00be003600f90000400600cc
:1004a0003600f8008020a9000000eb004f1a07007a
:1004b0003600f800511a07008040a9001000200003
:1004c0004a1a07003600f8008060a90020002000ca
:1004d000461a07003600f8008080a900300020008e
:1004e000421a07003600f8008600a90070002000bc
:1004f0003e1a0700801f78000000fa00f01c800000
:100500000040780044e8b700100020003042880026
:100510008960a9000080fa004f00780000400600c2
:100520000040da000000fe00000005000001be00ef
:10053000220007000470a70003f0a1006509b100c4
:10054000160032000d0035006828e1000600350075
:10055000f0ff2f00f1ff27000300e00013003b0035
:1005600001002800000005000000400081804800d4
:100570008502e900fcff3a0008003700f88f4200ce
:1005800002003c008000eb00000005008100d1006b
:100590000080d3008502e800fcff3a000300e00081
:1005a00002003b0060001000e08018000000060020
:1005b0004f89de008201780032023700c70ade0070
:1005c000f107b200f50fb20008003200e1cf42009f
:1005d000020032000170a00024000500810f7000ad
:1005e000010032000408050044000500810f70007e
:1005f00002003a00140005008502e90000004000f6
:1006000081c04800fcff3b000170a00024000500f1
:100610000c00fa00889fbe008a9fbe008c9fbe001f
:100620007d0207000206be00840578000200be00bd
:1006300002002000e801070005003a008b02b30029
:1006400012002000e401070001003a00f8856d0067
:100650000c01be00c60007000800be009b0032006f
:100660000b08a3009e003a000df0a7000be0a000cd
:1006700009f0a7000bf0a00009f0a1000801be00de
:10068000bb0007000bf0a6009500320001003c0003
:100690000bd0a0008acf7500b20033006000b80014
:1006a0006250e10099003900a1003e000b28a30030
:1006b000a2003a000bf8a300060032000b58a3007a
:1006c000a70032000801be00a90007000800be0014
:1006d000940032000800be00b00007000004be0015
:1006e000050578000bf0a7000b30a6000bf0a10069
:1006f0005b079800324f200053f32300dd01070011
:1007000005003d000800be00120020005a0207004c
:100710000004be000a05e9004a0798006150b900cc
:10072000a3ff0700008fbe000c01be00cb02070034
:100730007eff0700300798000100e00002003d0046
:1007400060001000e0801800f2ff2700820f5000c8
:10075000e08f580064003e000c00be0073ff0700ed
:1007600020079800f2072000820f5000e08f580009
:1007700005003c0012f82f00f3ff2f00820f5000fd
:10078000838f580009003d000a00e000030032009a
:1007900001003c000201ea00020578006000b80098
:1007a000200798003a079800190037003e00900093
:1007b0006100b9007eff0700809fbe000c00be00f4
:1007c0004109dd004811de007208b1008201070016
:1007d0000005be001e01be00a00207004f01be00c2
:1007e0007b000700809fbe000c00be000a01be0017
:1007f000770007001e01be00980207004f01be00ef
:10080000740007008221270013f3230093020700de
:100810000005be002e0090006100b90064ff0700d3
:1008200001f0a2000c01be006a0007000006be0035
:100830000800be00320207000c01be00870207005c
:100840000a01be0063000700809fbe004a00070047
:100850002e0590000af0a7000a05ea0005003700ff
:100860000800be000801be007c0207000004be00b4
:100870000c00be000801be000a00a70077020700b6
:100880000006be000a05d100f5ff3a005e019000a7
:1008900002e0a600030037000001be00360007009a
:1008a000a90007000004be004f00be00e8000700da
:1008b0000801be00690207003e019000ee0107003a
:1008c000de0590000bf0a70001f0a2004f06be006d
:1008d0004f05be004f04be000080fa000000060075
:1008e00025000700f9ff3700270007006000b80067
:1008f0000bd0a7000bc0a0000be0a7000bc0a2000c
:100900000bc0a70001f82700f0ff37000df8a30087
:10091000020032001e000700190007000bf8a300b8
:10092000eaff32000b30a70001f0a200e7ff37001a
:100930000df8a300f9ff3a00f7ff37000801be00e9
:100940000b000700e6ff320001003c000df0a200a2
:100950006000b8000df0a70009000700dbff3700ba
:100960000b000700f1ff2700f0ff2f00d7ff370033
:10097000010007003f01370001f8230000000500d7
:1009800001f82700000005002002200001003700c8
:1009900010022000e0428800000006000003be00b4
:1009a00006ff07006220e100020032000600be00e0
:1009b00005000500e507b100f107b20004f02300cf
:1009c0008480700007f0a70001f0a000240005005b
:1009d00003f0a200889fbe008a9fbe008c1f780093
:1009e0008d010700940133006450e1004f00320094
:1009f0006420e1005200320003826c0007003b00db
:100a00000905d0000306d000820f54000c065d00db
:100a100002003900020032008901780003067800e4
:100a20008582550004003d000003fd008103fd00a8
:100a30008502ea008b854200840f720002003b00b1
:100a400060001000e08018006011b8000005eb00a5
:100a50007a28e1000a00390006007800c75ddd0051
:100a6000f707b200878075002d0037008281710082
:100a70000a017800610560008180d1000080d30008
:100a80008502e900f9ff3b00060440008784480026
:100a900002003b0060041400e0841c000988a300ed
:100aa000070032008a817100828171006101640057
:100ab0008904d1000884d3008b05e80017003700b3
:100ac0000978a30013003a000b00e0001300340083
:100ad0008b05e9000804440089844c000a44740032
:100ae0000978a3000d003a000b00e0000700340075
:100af0008b05e9000804440089844c0001003a0099
:100b00000b0020000978a300f7ff32000001eb0082
:100b100002003700828171000a0178001801070085
:100b20000cf0a70001f0a0004c0137006420e100a8
:100b300002003a00838f6c004c0133000801be00b4
:100b40000200be0045013700889fbe008a9fbe009c
:100b50008c1f7800300107003701330003866c00da
:100b60006450e1002e0032006420e10033003200c6
:100b70006150e1002f0032006120e10031003200bd
:100b800085855500eb07b00009002000080420000f
:100b9000050037000804440089844c000a00310035
:100ba0000603430087834b000001530081815b00f3
:100bb000f8ff33000203be000800a0000804440050
:100bc00089844c00f6ff3900c639dd0083017300cb
:100bd00001003200130020008904d1000884d300f2
:100be0000998a300050032000800a7000300a00038
:100bf0008904d1000884d3008b05e8008904d10062
:100c00000884d3000001eb000281d200dc00070061
:100c100001f0a1000cf0a70001f0a0000f013700c7
:100c20006420e100110132000801be000200be0094
:100c3000f7ff37006120e1000c0132006000b800ce
:100c4000f3ff37000000200001f82700f0ff370015
:100c5000889fbe008a9fbe008c9fbe000004be001d
:100c600056fe07000800be006420e10048003e0078
:100c70005500320072212700132b24007f0007004b
:100c800047003c000800be00c2ec2800e32c2c000a
:100c900078000700470035000800be0001f0a10001
:100ca00002002000033823007200070043003500d3
:100cb0000800be00b2a32a0083fb230067010700df
:100cc0000200200003f0230001f0a70003f0a000c1
:100cd00040ff070015fe07000005be0034fe0700b8
:100ce00001f0a2000006be000200280013f323005a
:100cf0005a0107000801be0036ff0700809fbe00b2
:100d00000c00be0032082800e3952b0053010700b9
:100d10004f01be002fff07000006be000001be000d
:100d20004e010700809fbe004241250083b823008a
:100d30004a0107000200200003e8230025ff070006
:100d40000c01be00450107000006be004f00be00ba
:100d5000f2f92b00c3d42300400107000200200059
:100d600003f023001bff07000c01be0018ff070063
:100d70000001be000c00be0073ff0700020020004f
:100d800003f0230013ff070061014500ba000700cc
:100d90004f06be004f05be004f04be000000060017
:100da00001f827000000200022022000e242880013
:100db000f7ff37006000b800fbff370001f82300a1
:100dc00000002000f2ff370009f8a300f0ff320016
:100dd0006000b800eeff3700889fbe008a9fbe000b
:100de0000003be00f5fd07008505780082815200f2
:100df000020020006220e10004003a00f307b10085
:100e0000040035007718e100040035000600be003c
:100e1000140037006000b8000f003700f50f200005
:100e2000faff2f008502d1000a85d3008301e90073
:100e3000fcff3b008184620000046500890f7400a0
:100e4000f2ff32008582ea000a85ea0081846200ae
:100e5000000465004a00070007f0a70001f0a000a9
:100e60000081eb000200e0004f05be004f04be0011
:100e700000000600140020002c013700f4ff2f00b2
:100e80002a013700881f7800030478000300e0007f
:100e900007003d0060001000e080180060011900ac
:100ea000e081190002003b0001f02d000300370033
:100eb0000400070008f0a70001f0a0004f0478002c
:100ec00000000600889fbe008a9fbe00008270005e
:100ed0000402710004827100260032000004be008a
:100ee0000200be006011b8006b09200095022000ce
:100ef0000182cf000a0039000541b1000082cf0015
:100f0000070039000541b1000982cf000400390013
:100f10000541b1000882cf00010039000541b10050
:100f200005425200120032000a003b00828171002b
:100f3000610164008100d1000080d3008984d30066
:100f40000884d3008b05e8000442e800f7ff3a006c
:100f5000070037000804440089844c000000480062
:100f6000818048008b05e9000442e900f9ff3a005e
:100f7000030007004f05be004f04be00000006003e
:100f800081002000618055000b003d000b00200017
:100f900061fe2f000100e1001d003400828171001c
:100fa000610164008904d1000884d3000000e800d6
:100fb000faff3a0071002000610064000300700035
:100fc000020060000900320061044400e0844c002b
:100fd0000988a500050032008b05e8006808e100db
:100fe00002003a008904d1000884d300f20f2000e7
:100ff0000258e10005003d00c75ddd00f907b200c1
:101000008980750008007800000006000bf82700b2
:101010008b007800000005000004be0067fd07009b
:101020000003be000405be000200be0063fd070011
:10103000844f7500000006000200be006450e1000d
:10104000050036006420e100020036000968a300b4
:1010500001003a000800be000160a0004f067800c1
:101060004f05be004f04be0000000600f0ff2f0039
:10107000f1ff2700f9ff37000003be004ffd070016
:101080006220e100020032000600be0000000600ff
:1010900085024100e30f20000328e10005003c0029
:1010a000a3fe2f000328e10007003d0005002000fb
:1010b00001003700f50f200020022000e0428800e8
:1010c0006000b80008003700130020008381520040
:1010d00005003d008100d1000080d3008301e800bd
:1010e000fcff3a0005002000c72add00f107b2002e
:1010f0008580700007f0a70001f0a0000000060046
:10110000889fbe008a9fbe008c9fbe0023fe070002
:10111000850478000005be006420e10049003e001f
:101120006220e10003003200090035000bf8a30043
:10113000440032000bf8a300080032001002200027
:10114000e0428800f0ff2f00f1ff27003d0037004c
:1011500001f82f00000020003a0037003d00070092
:101160001bfe07000006be000a00be00324f200032
:1011700053f3230041ff0700060034000c00be00bb
:101180003400070012fe07000006be000a00be0081
:10119000020037008904e9000c00be002d000700a2
:1011a0002e0007002b0007000afe07000001be000a
:1011b0000c00be0064fe07000005be000001be007a
:1011c000260007000006be00a2f32300430d2c00fa
:1011d00000fe0700809fbe000c00be00d2e3270087
:1011e000d3f02b001d0007004f01be0056fe070084
:1011f0000006be000a01be00180007000a01be007a
:10120000f4fd07000006be006148b900e8fc0700d5
:101210000005be0032082800e3952b000f000700f0
:101220000c01be00ebfd07000006be000a00be0078
:101230000200280013f32300080007000c01be0081
:10124000e4fd07004f06be004f05be004f04be0080
:101250000000060003f0230002000500889fbe0086
:101260008a9fbe008c1f78006bff070072ff33005f
:1012700003866c006450e100240032006420e10029
:10128000270032006150e100220032006120e100bd
:10129000210032008b854200eb07b1000134b80019
:1012a000003ab8000804420089844a00013ab800b4
:1012b0000030b8008880400009014a000400330073
:1012c0000000400081804800020149008b05e900d0
:1012d000c909dd0083017000010032001300200005
:1012e000c814de004814dd004709de001200b20019
:1012f000c808de000884700021ff070001f0a1008b
:101300000cf0a70001f0a00054ff37006120e100bd
:1013100056ff32000801be000200be00f7ff370092
:101320006150e100fcff3a0050ff3700889fbe008b
:101330008a9fbe00841f780037ff07004f007800a7
:1013400011003300f0ff2f00838f6c0006003b007c
:10135000040565000a00a7000800370009f0a60090
:101360001000200008003700820f5400838f5c00bb
:10137000030039001000200001003e0000002000a2
:1013800009f0a7000000ea004f05be004f04be00b0
:101390000000e0000000060009003700304278003d
:1013a000b1417800834f5200040032001000200049
:1013b000060031000080eb00000006000201e90099
:1013c0000200e000f5ff3a000000eb00000006001c
:1013d0008001780002003700b15978000201e9006d
:1013e0000200e000fcff3a000000060080017800e7
:1013f00002003700815978000201e9000200e00094
:08140000fcff3a0000000600a9
:020000040000fa
:101408001111000022220000333300004444000080
:101418005555000066660000777700008888000050
:1014280099990000aaaa0000bbbb0000cccc000020
:10143800dddd0000eeee0000cecd0000acab00001c
:10144800494400004c45000000a50000a5a5000087
:10145800a5a50000a5a50000a5a50000a5a500005c
:10146800a5a50000a5a50000a5a50000a5a500004c
:10147800a500000074610000736b00004e6100005d
:101488006d6500000000000074610000736b0000cf
:101498004e6100006d6500000000000074610000ee
:1014a800736b00004e6100006d65000000000000d5
:1014b800546d0000722000005376000063000000a5
:020000040000fa
:1014c8001000fa002007980031079800420798009a
:1014d800530798006407980075079800a003200038
:1014e8002d150700000f78001e0078000000e000ae
:1014f8000e0032004e009000000040002615070044
:10150800800078001e007800610898001e007800ae
:10151800600890000000e00004003a001e00780017
:101528004e1507000000eb00000f78001e00780041
:101538000000e000120032004e0090008000eb0036
:101548000001eb00821f78009e0378007e03900064
:10155800ee0290005e0290000001be00be00900006
:101568002e0090000b0007008f87e9001e0078000e
:1015780079000700100020001007980002003700cb
:101588000080eb00100798001e0090000080fa0011
:10159800000006001400fa002007980031079800a0
:1015a8004207980053079800640798007507980049
:1015b800060f9800170f98004e009000000040009a
:1015c800800078001e0890006008900001017800f3
:1015d800510a200083ff07001e089000e0089000d1
:1015e800110798001e089000e00890004e01900036
:1015f800f0ff27000000410000004000808040000c
:101608001e089000711098000000eb00000f780091
:101618000d0037003e0090001e004000904078000a
:101628001e0890001e0040007e004000014878001f
:101638003e0090001e004000104078000004e000ca
:10164800050032001e0fe8001e007800ef0f500062
:10165800f0ff360001003700000000001e0890006f
:101668008040eb00516898007e009000e40f500025
:101678000200360040002000700798001e08900005
:10168800fe009000510898001e089000fe0090008f
:10169800011898001e0890008000eb0011189800af
:1016a8001e0890000080e800f81207001e0890004d
:1016b8006e004000f51207001e0890009e0890007a
:1016c800510098007e0090008000eb00520020003e
:1016d8000300200000005100818059001e0990007d
:1016e80070019800010998001e0890009e0890005b
:1016f800310898001e0990006000b8002019980071
:10170800311998001e0890008040eb00017898007d
:101718001e0890008040eb00117898006e01900040
:10172800ae0090001e0090005a1307008000780059
:101738001e089000010878000e0890000000e000e4
:10174800030032000e0890009e08900001087800ff
:101758000080fa00000006000200fa00000f78007e
:10176800c8130700304080000000e80030408800bf
:10177800004080000000e00007003a009e0078006a
:101788000140880030408000e10f50000d003a0011
:101798002d0407000b003700704080000000e000b7
:1017a80008003a0000408000d00890001e00780031
:1017b80050089000808f500002003e009e00780084
:1017c80001408800b04080000000e800b040880078
:1017d8001e007800d008900060408000808f500084
:1017e800030036001e007800500890006040880012
:1017f8001e81e8001e007800500890006c00b900b7
:1018080080007800e0c52100008040008200780058
:10181800a5120700a8130700704080000000e00030
:101828000900320000408000d00890001e007800b7
:1018380050089000808f5000030031004e350200a0
:1018480000000000000000000080fa000000060010
:101858000600fa0010079800210798000000eb0026
:10186800000f78001e009000ae009000e00f5000be
:10187800e08f580007003200f30007000001eb007a
:101888001e009000ae009000ce060700f40007008e
:10189800000f78001e0078000000e00003003a0006
:1018a8004e35020000000000000000000080fa0031
:1018b800000006000800fa0030079800be009000fb
:1018c80011079800004080009e009000808f500013
:1018d80003003a000000eb00000f78001200370008
:1018e800681307001e009000600090002007980011
:1018f8007113070010408000ae009000808f5000e8
:101908000400320020408000ae009000808f50001c
:1019180003003a0020002000000f78000200370082
:1019280010002000000f78001e0078000080fa00e8
:10193800000006000600fa0020079800511307006f
:101948002e0090000000e00002003a0000408000f5
:10195800010037002e009000000f78001e0078006c
:10196800d008900011079800531307001e0090003c
:101978000080fa00000006000800fa00300798000e
:101988000000eb00000f78003e0090000000e0002f
:1019980002003a0000408000010037003e0090003d
:1019a800100798001e009000d008900021079800aa
:1019b8002e0090000080fa00000006000c00fa00db
:1019c80040079800510798000000eb00000f7800ce
:1019d8005e009000e40f5000020036004000200036
:1019e80050079800271307004e0090000000e00001
:1019f80002003a0000408000010037004e009000cd
:101a0800100798001e009000801890002107980089
:101a1800ae0090005e009000808f500058003200a9
:101a2800de0090002e009000808f50000c003600e1
:101a3800004080009e009000808f50000e00320011
:101a480000408000d00890005e009000808f500019
:101a580009003e0010002000000f78000600370043
:101a6800004080009e009000808f500002003a00e5
:101a780010002000000f78001e009000d008900091
:101a8800310798001e009000801890001e009000fa
:101a980050089000808f500003003a001e0090000c
:101aa800de009000510898001e009000de009000b3
:101ab800011898001e0090008008900070009000a7
:101ac800e00f5000e08f5800090035005e009000dc
:101ad8008000eb00520020000300200000005100ad
:101ae800818059001e01900070019800010998003a
:101af8001e009000600190003e0090006c00b9004c
:101b080080007800e0c5210000804000800f51006f
:101b180015003a001e0090000080e8003912070006
:101b28001e009000d008900060408000808f500018
:101b3800030036001e0090005008900060408800a6
:101b48001e0090000081e8001e00900050089000e0
:101b58006c00b90080007800e0c5210000804000da
:101b680082007800d01107001e0078000000e00015
:101b7800030032004e3502000000000000000000a3
:101b8800cd1207000080fa00000006000200fa00eb
:101b9800c58120000002eb008001eb000208200054
:101ba80041a228002041210045fe0700000f7800cf
:101bb8001e007800e10f500002003a00f90b070000
:101bc800000f78001e007800e10f500010003a0066
:101bd80011028000f0f12f00008060000050a0008a
:101be8001002880000000000000000000080eb00e8
:101bf8008080eb00c0408800d140880010002000a1
:101c0800704088000828ef000a28ef006e120700cd
:101c18000080fa00000006000000fa0011028000af
:101c2800f0f12f00008060000050a0001002880032
:101c380000000000000000000e28ef007a120700e4
:101c48000080fa00000006000000fa00f040800062
:101c58000000e800f04088000080fa00000006005c
:101c68000600fa000000eb00000f78000000eb000f
:101c78001007980083120700f04080000000e90078
:101c8800f0408800f04080000000e00045003a0085
:101c9800304080000000e0004200320021003700a0
:101ca800d0e5800040009000000f78009e0078008a
:101cb8006e804000d31107001e80e800d111070094
:101cc8001e007800d008900060408000808f50008f
:101cd800030036001e00780050089000604088001d
:101ce8001e81e8001e007800500890006c00b900c2
:101cf80080007800e0c52100008040008200780064
:101d0800691107001e007800d0089000004080008c
:101d180050089000808f5000020039001000200009
:101d28009040880090e580000000e000dcff3a0069
:101d38001e0078000000e00001003200df0207000a
:101d480081408000210798002e0090000000e000ec
:101d58000c003200f80007000000e000020032002a
:101d680010002000904088002e0090000000e9003c
:101d7800200798002e0090000000e000f5ff3a00d0
:101d88001028ef00904080000000e00005003200bd
:101d980010002000100798004e35020000000000d7
:101da80000000000441207001e0090000080fa00a6
:101db800000006000400fa003212070042408000ca
:101dc80053408000028fbe003b1207001e00be0079
:101dd8000080fa00000006000600fa000000eb0090
:101de800000f78004240800053408000120798009e
:101df800230798001e009000ae0090000080fa00b3
:101e0800000006000000fa00304080000080fa0060
:101e1800000006000400fa00100798001e00900059
:101e28000000e00002003a00004080000100370096
:101e38001e009000000f78009e0078007e80400011
:101e48000080fa00000006001200fa0070079800ef
:101e5800010f98000000eb00000f78007e00900052
:101e6800100078000000e00052003200fe009000f0
:101e7800210798002e00900010009000a00090000c
:101e88002e009000110098002e0090009000900005
:101e98002e00900064004000808f500005003a003a
:101ea8002e00900010009000a00090002e009000de
:101eb800110098002e009000100090004000900043
:101ec800300798007e019000420798004e0090006d
:101ed80010009000a00090004e00900011009800a3
:101ee8004e009000900090004e009000640040006a
:101ef800808f500005003a004e00900010009000be
:101f0800a00090004e009000110098004e00900034
:101f18001000900040009000500798000000eb006f
:101f28001007980015003700de0090001e00900092
:101f38007e00400061417800424f98008e08900072
:101f48001e00900000804000904078004e489000ad
:101f580080cf50000d003a004e4890000004e00089
:101f680003003a00de009000010f780008003700f7
:101f78001e0090000000e800100798001e00900066
:101f8800ef0f5000e8ff36000100370000000000a6
:101f98001e0078000000e00005003a00de00900016
:101fa8003e009000808f5000c6ff3a0001003700c5
:101fb800000000001e0078000080fa000000060003
:101fc8000600fa002007980050002000000f780053
:101fd8001dff07001e0fe9001e0078006c00b90005
:101fe80080007800e0c5210000804000ae0090002d
:101ff80095ff0700100798001e0090000000e00001
:1020080004003a001e0078000000e000f1ff3a00ea
:1020180001003700000000001e0090000000e000f2
:1020280004003a0010408000ae00900086ff0700d0
:10203800100798001e0090000000e00004003a001d
:1020480020408000ae0090007fff07001007980036
:1020580003ff07001e0090000080fa000000060041
:102068000600fa0020079800ae009000010f7800e3
:102078000000eb0010079800f3fe07002e00900008
:102088000cfe0700e20f500027003a001e80e8000f
:10209800dc1007007b1107001e0078004008900044
:1020a8000000e000060032009e0078006e804000cc
:1020b800d41007001e00780011c0b30011789800f2
:1020c8007d1107001e007800d00890006040800055
:1020d800808f5000030036001e00780050089000e2
:1020e800604088001e81e8001e00780050089000bb
:1020f8006c00b90080007800e0c521000080400035
:1021080082007800681007001e007800d008900050
:102118000040800050089000808f50000200360078
:102128001000200090408800cdfe07001e0090009f
:102138000080fa00000006000e00fa000000eb0024
:10214800000f7800f04080000000e00066003a00d0
:10215800404080005140800061004000e08048001d
:1021680010079800210798001e019000ae0190000a
:1021780042408800534088001e009000ae00900046
:10218800e00f5000e08f58000a003a00134080002a
:10219800330798002040800010408800be0090005f
:1021a80021408800a04080000000e800a04088008e
:1021b800c2010700c0408000d14080001e0190008d
:1021c800ae019000800f5100818f59004a003900fc
:1021d8000100370000000000104080001000780067
:1021e8000000e00005003a000080eb008080eb0072
:1021f800c0408800d140880040003700104080006f
:102208004000900040009000400798004e00900069
:1022180010019000a00190005207980063079800f1
:102228001e019000ae0190005e009000ee0090004c
:10223800800f5100818f5900060031005e01900027
:10224800ee019000c2408800d340880000000000e2
:102258002a0037004e0090000080e800691007004f
:102268004e009000400890000000e000030032009b
:102278004e0090006e004000621007004e00900073
:10228800d008900060408000808f50000300360026
:102298004e00900050089000604088004e0090006a
:1022a8000081e8004e009000500890006c00b900d2
:1022b80080007800e0c5210000804000820078009e
:1022c800f90f07004e009000d008900000408000f1
:1022d80050089000808f5000beff39001000200089
:1022e800000f7800bcff3700804080000000e80045
:1022f8008040880001003700000000009040800006
:102308000000e0000200320010002000000f7800fa
:102318001e0078000080fa00000006000600fa009f
:10232800f04080000000e0000300320010002000b0
:1023380090408800390037001228ef0000408000e4
:1023480070109000100798001e0090007400500054
:10235800100798004201200091a228001e0090005a
:102368000bfc07000000e000040032000040800081
:10237800fe004000004080007312070061408000aa
:10238800010f7800010037001e0fe9001e007800d9
:102398006c00b90080007800e0c521000080400092
:1023a800100078000000e000f7ff32001e007800ff
:1023b8006c00b90080007800e0c521000080400072
:1023c800200798002e00900010009000a0009000b8
:1023d8002e009000110098002e00900090009000b0
:1023e8002e00900064004000808f500005003a00e5
:1023f8002e00900010009000a00090002e00900089
:10240800110098002e0090001000900040009000ed
:10241800004088009e007800614088000080fa0033
:10242800000006000600fa00000f78001207980066
:1024380023079800004080006e004000800078006c
:102448001e007800b60f0700120020001e00900042
:10245800ae009000db0307000080fa0000000600d1
:102468000a00fa00000f7800120798002307980066
:102478003407980045079800024080001e0090002d
:10248800ae00900001f0a0007001980001099800ca
:10249800004080006e004000800078001e00780038
:1024a800810f0700120020003e009000ce0090002f
:1024b800c40307000080fa00000006000800fa00c4
:1024c800000f78001207980023079800310798003a
:1024d800004080006e004000800078001e007800f8
:1024e800710f07003e0090000000e0000400320079
:1024f8000080eb008080eb0010079800210798000f
:102508003e0190001e009000ae009000ad03070051
:102518000080fa00000006000600fa002007980074
:102528002e00900040009000400090001007980096
:102538001e0090006e004000b20f0700f0408000bf
:102548000000e00016003a001e0090000080e8003d
:10255800ac0f07001e009000d0089000604080007b
:10256800808f5000030036001e0090005008900035
:10257800604088001e0090000081e8001e00900066
:10258800500890006c00b90080007800e0c5210078
:102598000080400082007800430f070005003700e4
:1025a8001e0090006e0040008000780020cb2100c3
:1025b8003d0f07001e009000d008900000408000ea
:1025c80050089000808f5000050036001000200051
:1025d800000f7800100020009040880002003700ab
:1025e8000000eb00000f78001e0078000080fa0061
:1025f800000006000a00fa00200798003207980039
:10260800430798003e009000ce00900001f0a00023
:102618002e0190000089be002e009000400090001e
:10262800100798002e009000760f07001e009000fb
:102638000080e800730f07001e009000d00890008b
:1026480060408000808f5000030036001e0090001c
:1026580050089000604088001e0090000081e8004b
:102668001e009000500890006c00b90080007800af
:10267800e0c5210000804000820078000a0f0700b2
:102688001e009000d0089000004080005008900084
:10269800808f50000500360010002000000f7800e1
:1026a8001000200090408800020037000000eb0076
:1026b800000f78001e0078000080fa000000060075
:1026c8000200fa00000f7800a14080001e00780088
:1026d8000108780040408000514080001e017800c9
:1026e80010019800210198000080fa0000000600ff
:1026f8000a00fa003007980041079800e10f070028
:102708004240800053408000120798002307980039
:1027180000408000107890000004e00006003200bd
:10272800004080008040eb001178980010002000e5
:10273800000f7800300037003e00900090007800cd
:10274800a0408000808f50000b0032003e009000b7
:1027580010019000a00190001e009000ae009000b3
:10276800800f5100818f590003003e0010002000a7
:10277800000f7800200037003e009000a000900075
:10278800100090001e019000ae0190000001510061
:10279800818159004e0090001000be00800f51004a
:1027a800818f5900120031004e0090001001be00c8
:1027b8003e00900010029000a00290001e009000c1
:1027c800ae0090000000520081805a0002004000d4
:1027d800838048004e0190000089be003e009000b2
:1027e800b7ff07000000eb00000f78000200370079
:1027f80010002000000f7800af0f07001e007800bf
:102808000080fa00000006000000fa001000200016
:10281800904088000080fa00000006000200fa00dc
:10282800000f780022000700f0e28000e10f50005e
:10283800030036004e3502000000000000000000d2
:102848003d110700f7ff37000200fa000000eb0017
:10285800000f7800070037001e0078006c00b900f0
:1028680080007800e0c52100008040006c0e070061
:102878001e0fe8001e007800e40f5000f6ff360037
:10288800a0c92100660e070060ca2100640e070077
:1028980020cb2100620e0700a0c92100104088004b
:1028a80060ca2100204088000080fa00000006006d
:1028b8000000fa000080fa00000006000200fa009a
:1028c80010408000100078000000e00005003a0089
:1028d8000080eb008080eb00c0408800d140880079
:1028e8000900370010408000400090004000900030
:1028f800000f78001e007800a000900010009000e3
:10290800c0408800d14088000080fa00000006001e
:102918000200fa0001408000010f78001e007800d4
:102928000080fa00000006000200fa0070408000f3
:102938000000e00003003a0010002000000f7800bb
:1029480008003700f04080000000e00003003a0073
:1029580020002000000f7800020037000000eb0084
:10296800000f78001e0078000080fa0000000600c2
:102978000400fa00100798009e009000010f7800ec
:102988001e0090000000e0003c0032001e007800ad
:10299800d00890000040800050089000808f5000c0
:1029a800360031001e00780080089000700090000a
:1029b800e00f5000e08f58000a003500004080000a
:1029c800500890008000eb00520020000300200017
:1029d80000005100818059001e01780070019800a4
:1029e800010998001e007800600190001e00780020
:1029f800500890006c00b90080007800e0c5210004
:102a080000804000800f510018003a001e80e80046
:102a18007c0e070000408000d00890001e0078005f
:102a2800510898001e007800d0089000604080008f
:102a3800808f5000030036001e0078005008900078
:102a4800604088001e81e8001e0078005008900051
:102a58006c00b90080007800e0c5210000804000cb
:102a680082007800100e0700040037000040800044
:102a7800d00890001e007800510898000080fa00e5
:102a8800000006000600fa0020079800ae0090003b
:102a9800110798000000eb00000f78002e0090004e
:102aa8000000e000340032001e0090001018900072
:102ab8008000e9001e009000111898001e00900088
:102ac800d00890001e00900000189000808f5000e1
:102ad800290032001e009000101890000000e0004d
:102ae80025003a001e0090000080e800450e07000f
:102af8001e009000801890001e0090005108980059
:102b08001e009000500890008000eb00520020004a
:102b18000300200000005100818059001e01900030
:102b280070019800010998001e009000d0089000dc
:102b380060408000808f5000030036001e00900027
:102b480050089000604088001e0090000081e80056
:102b58001e009000500890006c00b90080007800ba
:102b6800e0c521000080400082007800ce0d0700fb
:102b780010002000000f78001e0078000080fa0086
:102b8800000006000400fa00004080007001900078
:102b980080099000028fbe00044080000040800041
:102ba800500890008000eb00520020000300200035
:102bb800000051008180590070029800010a9800b5
:102bc8001e00be000080fa00000006000000fa00a7
:102bd800004080000000e000040032000040800057
:102be800901890008100e8001118980000408000bb
:102bf8000080fa00000006000a00fa00200798008a
:102c080032079800430798009e0e07000040800096
:102c1800b018900020189000e00f5000e08f580086
:102c28000f003a000040800011c0b30001789800fe
:102c38003e009000ce009000e00f5000e08f58005a
:102c480007003200120020003e009000ce009000e5
:102c5800dc0107004e350200000000000000000003
:102c6800950e0700870e070000408000201990008d
:102c7800b0199000028fbe001e00be00e00f500089
:102c8800e08f58000f0032002e0090000000e00096
:102c980005003200024080006000b800201998004a
:102ca8003119980007003700024080000082eb00cd
:102cb8008082eb003e004200ae804a002019980056
:102cc80031199800004080008040eb00017898009e
:102cd800790e07001e00be000080fa000000060002
:102ce8001000fa0010079800210798003207980092
:102cf80043079800540798006607980077079800dc
:102d0800600e07000040800000789000e24f5000fd
:102d1800250032000440800024199000b419900066
:102d28001e009000ae0090000080ea008180ea005a
:102d380082027800030178008001780001007800a1
:102d480083826200000061008000eb00c000dd00ab
:102d5800000020000001be006128b80000017100d9
:102d680081817100221a9800331a9800004080006f
:102d780011c0b300017898006e009000fe0090002a
:102d8800e00f5000e08f58000700320012002000ca
:102d98006e009000fe0090008a0107004e35020088
:102da8000000000000000000430e0700350e070079
:102db8005e0090000000e000050032000040800046
:102dc800b0189000201890005e0190000089be00a5
:102dd8000040800000789000e14f500003003a0066
:102de8000000eb00000f7800180037000440800056
:102df80024199000b41990003e009000ce00900075
:102e08000080ea008180ea008202780003017800ed
:102e18008001780001007800838262000000610070
:102e28008000eb00c000dd00000020000001be00b3
:102e38006128b8000001710081817100221a980090
:102e4800331a980010002000000f7800004080001e
:102e58008040eb0001789800170e07001e007800ec
:102e68000080fa00000006001000fa003007980001
:102e78004207980053079800610798007407980064
:102e880010002000000f7800be0090001107980085
:102e9800fc0d07007e0090000000e00005003200f5
:102ea8001e009000b0189000201890007e0190003d
:102eb8000089be001e0090000079900042479800eb
:102ec8001e00900021c0b300017898006e009000a9
:102ed800e20f500017003200e20f500005003e00dc
:102ee8000000e0002e003200e10f50000600320022
:102ef8002c003700e30f500017003200e40f500099
:102f08001b003200270037001e0090002019900097
:102f1800b01990004e009000de0090000000710093
:102f2800818071001e0190002019980031199800c5
:102f38001c0037001e009000b01890002018900068
:102f480061004000e08048001e01900020199800b0
:102f580031199800130037001e0090004e019000b0
:102f6800de01900022189800331898000d003700f1
:102f78004e409000e24f5000060032001e009000c4
:102f88004e019000de019000221898003318980036
:102f9800040037000000eb00000f78000100370044
:102fa800000000004e409000e14f50001e003a0023
:102fb8001e0090000080e800120d07001e0090001f
:102fc800d008900060408000808f500003003600d9
:102fd8001e00900050089000604088001e0090007d
:102fe8000081e8001e009000500890006c00b900b5
:102ff80080007800e0c52100008040008200780051
:10300800a90c07001e009000d00890000040800026
:1030180050089000808f5000030036004e350200a3
:103028000000000000000000a30d07001e0078004b
:103038000080fa00000006001400fa00400798001b
:10304800520798006307980071079800040f9800ca
:10305800150f980010002000000f7800ce00900097
:10306800110798000000eb00200798000e08900058
:103078000000e000050032001e009000b01890002b
:10308800201890000e0990000089be001e009000d4
:1030980000799000624798001e00900021c0b3009c
:1030a800017898007e009000e20f5000170032006f
:1030b800e20f500005003e000000e0002e00320044
:1030c800e10f5000060032002c003700e30f5000db
:1030d80017003200e40f50001b00320027003700b1
:1030e8001e00900020199000b01990005e0090001a
:1030f800ee00900000007100818071001e019000b8
:1031080020199800311998001c0037001e00900003
:10311800b01890002018900061004000e08048003e
:103128001e019000201998003119980013003700eb
:103138001e0090005e019000ee0190002218980099
:10314800331898000d0037006e409000e24f500091
:10315800060032001e0090005e019000ee01900013
:103168002218980033189800040037000000eb007c
:10317800000f780001003700000000006e4090004a
:10318800e14f50002d003a00f04080000000e000c0
:1031980016003a001e0090000080e800990c070015
:1031a8001e009000d008900060408000808f500082
:1031b800030036001e009000500890006040880010
:1031c8001e0090000081e8001e009000500890004a
:1031d8006c00b90080007800e0c521000080400044
:1031e80082007800300c0700050037001e009000b0
:1031f8006e0040008000780020cb21002a0c0700d8
:103208001e009000d00890000040800050089000f8
:10321800808f5000090036001e0890000000e00072
:10322800040032001e0890001100200001087800f8
:103238000200370010002000904088001e0078002f
:103248000080fa00000006000a00fa003007980023
:1032580041079800be009000010f78000000eb00c5
:10326800100798001e007800807890004147980069
:103278001e00780021c0b300017898001e00780075
:10328800b01890002018900061004000e0804800cd
:103298001e01780020199800311998004e409000be
:1032a800e14f50002b003a00f04080000000e000a1
:1032b80014003a001e80e800520c07001e00780037
:1032c800d008900060408000808f500003003600d6
:1032d8001e00780050089000604088001e81e800b9
:1032e8001e007800500890006c00b900800078003b
:1032f800e0c521000080400082007800ea0b07004a
:10330800050037009e0078006e804000800078003d
:1033180020cb2100e40b07001e007800d0089000a5
:103328000040800050089000808f5000090036004f
:103338004e0090000000e000040032004e009000b3
:10334800110020000108780002003700100020005a
:10335800904088000080fa00000006000600fa008d
:10336800200798002e0090000000e00002003a00bc
:1033780000408000010037002e00900010079800e0
:10338800c00c07001e00900000789000e24f50002b
:1033980006003a001e0090008040eb00017898007b
:1033a80010002000000f7800020037000000eb003a
:1033b800000f7800c00c07001e0078000080fa009b
:1033c800000006000e00fa00400798005107980018
:1033d800620798004240800053408000028fbe0080
:1033e800004080008040eb00117898000040800089
:1033f8000080e800030c07004e009000de009000fb
:103408003e014000ae8148000200be00200798003f
:1034180031079800004080002e019000be01900006
:1034280012009800230098002e009000be00900023
:10343800be0f5000ae8f58000500310000408000dc
:103448008080e80020408000b50b07000f0037009f
:10345800004080008080e80010408000b00b07002a
:10346800c0408000d14080002e019000be01900035
:10347800800f5100818f5900040031002e01900007
:10348800be019000c2408800d34088000080fa0046
:10349800000006000600fa001007980021079800af
:1034a8009e009000010f7800760c07001e0078003f
:1034b800100178001e007800901090001e0078001f
:1034c800201090000088b9000000780080004100ba
:1034d8001e007800110098001e0078008000eb00a4
:1034e800011098001e007800900078001e007800f7
:1034f800210098001e007800100178001e00780056
:10350800101090008000e9001e0078002010900044
:103518000088b90000007800800041001e00780093
:10352800310098001e00780080c0eb0061609800b0
:103538001e00780080c0eb00716098002e0090009b
:103548000000e0000d003a001e00780040009000e6
:103558000000e0000f0032009e0078006880400004
:10356800edfb07000000e0000a0032004e350200c3
:103578000000000000000000060037009e007800f0
:1035880068804000260b07009e0078007480400089
:10359800230b0700480c0700100020000080fa00e9
:1035a800000006000c00fa00300798004107980058
:1035b800224f98004e0090000000e00003003a00ff
:1035c8000000eb00000f780005003700be009000f7
:1035d8004e0090000088b90000007800000f7800c5
:1035e800a10220001e804000eb0c07001007980085
:1035f8001e0090000000e000090032001e0090004c
:10360800a002b000200798001e029000ae4990006a
:103618002e019000ce0090003e00900003000700ad
:103628001e0090000080fa00000006000a00fa0060
:10363800000f780011079800220798006347980048
:10364800440798001e0090000000e00004003a00c3
:10365800ce0090004e00900001087800030037006b
:10366800ae0090004e009000010878004e009000d7
:103678009e007800111098004e0090009e00900067
:1036880021109800110020004e00900081ff0700d3
:103698004e0090008000eb00411098000080fa0076
:1036a800000006000200fa00000f78001e007800f3
:1036b8000000e0000e0032001e0078008000eb00e1
:1036c800110098001e0078008000eb0001087800c7
:1036d8001e0078008000eb00310098000002eb002b
:1036e8006011b8008000eb001e007800230007007e
:1036f8000080fa00000006000800fa006047980001
:1037080010002000000f78000000eb001007980060
:103718006e4190009e0090001e007800a1ff0700f7
:10372800200798002e009000deff07002e00900072
:103738000080fa00000006000600fa001007980052
:103748002107980022c0b3008000eb001e00900003
:1037580094ff0700000f78001e0078000000e000ca
:10376800030032001e007800ae009000011098009f
:103778001e0078000080fa00000006001600fa001b
:103788006007980071079800020f9800130f9800bf
:10379800240f98000000eb00000f7800ee00900066
:1037a800110798000100370000000000b50b070062
:1037b8001e009000801090001e00900010109000d5
:1037c800808f5000030039002e089000e20f50004f
:1037d80028003a002e099000fe0090001e0090007c
:1037e8000e020700200798001e009000401090006d
:1037f8000000e00009003200ae0890001e009000b2
:10380800ba0407000000e000170032004e3502003d
:103818000000000000000000130037001e009000a8
:10382800200890000000e000090032001e0090000f
:103838007400400038fb07000000e0000a00320076
:103848004e350200000000000000000006003700ae
:103858002e0090000000e000030032004e35020008
:103868000000000000000000930b0700100020007b
:10387800420037000e0890009e089000e00f5000ac
:10388800e08f580003003a008b0b07000000eb00a4
:103898003a0037001e0078000000e00004003a00fb
:1038a8006600470086fb070010002000000f780024
:1038b800810b0700e4f80700720b07001e00900058
:1038c80060609000e14f400003003a001e00900045
:1038d8008040eb00616098001e00900070609000ce
:1038e800e14f400003003a001e0090008040eb00ca
:1038f80071609800700b0700f000470066004700f1
:103908007bfb07000000e00018003a001e00900052
:10391800a70207000000e000100032000e08900027
:103928009e0890001e019000680241000001be0040
:1039380004007800bbfa07001e0090003b02070055
:10394800c7f807000000e00097ff3a004e35020074
:10395800000000000000000094ff37001e009000e7
:1039680032020700bef8070090ff37001e009000e3
:103978002e020700baf807000000eb000080fa00ea
:10398800000006001000fa00400798005107980050
:103998006207980073079800ce00900011079800fe
:1039a8000000eb00200798001e0090008010900097
:1039b8001e00900010109000808f50000300390006
:1039c8007e009000e20f500032003a001e00900086
:1039d800f0609000614798007e019000de00900042
:1039e8001e0090008d0107006e409000e14f4000de
:1039f80020003a001e009000401090000000e000f7
:103a08000c003200fe0090001e00900037040700f2
:103a18000000e0001c0032006e0090000000e00092
:103a2800190032006e009000110020000108780093
:103a3800150037001e009000200890000000e000ec
:103a4800110032001e00900074004000b2fa070016
:103a58000000e0000c0032006e0090000000e00062
:103a6800090032006e009000110020000108780063
:103a7800050037006e4090000040e8008040780064
:103a88001e0090007160980010002000000f780060
:103a9800020037000000eb00000f78001e007800dd
:103aa8000080fa00000006000e00fa005007980097
:103ab80061079800de009000110798000000eb00f5
:103ac800200798001e009000801090003107980091
:103ad8001e009000901090003e009000808f5000d3
:103ae800320036001e009000f0609000014f9800f0
:103af8003e0090008000e8001e0090000110980031
:103b08000e489000e14f400020003a001e0090004f
:103b1800401090000000e0000c0032008000eb0034
:103b28001e009000f10307000000e0001c003200b6
:103b38006e0090000000e000190032006e00900056
:103b48001100200001087800150037001e009000c1
:103b5800200890000000e000110032001e009000d4
:103b6800740040006cfa07000000e0000c0032000e
:103b78006e0090000000e000090032006e00900026
:103b88001100200001087800050037000e48900059
:103b98000040e800804078001e00900071609800a6
:103ba80010002000000f7800020037000000eb0032
:103bb800000f78001e0078000080fa000000060060
:103bc8001800fa0070079800010f9800120f98006b
:103bd800230f9800340f98000000eb00000f7800c6
:103be800fe00900011079800030037000000000055
:103bf8000100370000000000a20a07001e00900024
:103c080080109000210798002e0090000000e0002e
:103c1800340032001e009000b00090003107980078
:103c28008e0890001e0090005e0107003e0890007c
:103c38000000e00019003a002e0090008000e90022
:103c48001e009000011098001e00900010007800df
:103c58000000e00004003a00dcfb07008000780068
:103c68001e009000110098001e0090004000900077
:103c78000000e000180032001e00900068004000bc
:103c880025fa07000000e000130032004e3502005c
:103c980000000000000000000f0037001e00900028
:103ca800be009000310098001e009000200890008f
:103cb8000000e000080032001e0090007400400080
:103cc80015fa07000000e000030032004e3502003c
:103cd8000000000000000000770a07001000200024
:103ce8004f0037001e089000ae089000e00f50000b
:103cf800e08f580003003a006f0a07000000eb004d
:103d0800470037001e0078000000e00004003a0079
:103d1800680047006afa070010002000000f7800ca
:103d2800650a0700c8f70700560a07001e0090003a
:103d380060609000e14f400003003a001e009000d0
:103d48008040eb00616098001e0090007060900059
:103d5800e14f400003003a001e0090008040eb0055
:103d680071609800540a0700f20047006800470095
:103d78005ffa07000000e00021003a001e009000f2
:103d88006d0107000000e000190032001e009000dd
:103d9800100078000000e00005003a00390a07002a
:103da8001e00900010009000f1fa0700420a070078
:103db8001e089000ae0890001e0190007402410099
:103dc8000001be000400780096f907001e0090006c
:103dd80016010700a2f707000000e00083ff3a0081
:103de8004e350200000000000000000082ff37008e
:103df8001e0090000d01070099f707007eff3700ad
:103e08001e0090000901070095f707001e009000aa
:103e1800490107000000e00076ff32000000eb00d7
:103e28000080fa00000006001000fa005007980011
:103e38006107980072079800de009000110798004b
:103e48000000eb00200798001e00900080109000f2
:103e5800310798003e0090000000e0002500320085
:103e68001e009000e0609000014f9800ee00900066
:103e78001e009000cb0007003e0090008000e90083
:103e88001e009000011098000e489000e14f40007d
:103e980010003a001e009000400090000000e00072
:103ea800110032001e009000680040009af90700d7
:103eb8000000e0000c0032007e0090000000e000ee
:103ec800090032007e0090001100200001087800ef
:103ed800050037000e4890000040e8008040780058
:103ee8001e0090006160980010002000000f78000c
:103ef800020037000000eb00000f78001e00780079
:103f08000080fa00000006000c00fa004007980044
:103f180051079800ce009000110798000000eb00b0
:103f2800200798001e009000001090000000e0009c
:103f38000c0032001e009000b0009000310798007d
:103f4800de0090001e009000960007001e00900002
:103f5800be0090003100980010002000000f78008b
:103f6800020037000000eb00000f78001e00780008
:103f78000080fa00000006000400fa00100798000c
:103f8800c00907001e00900080109000010f780003
:103f9800c90907001e0078000080fa00000006002a
:103fa8000600fa0020079800ae009000010f780084
:103fb800b40907001e007800901090001e007800d9
:103fc800001090000080500010079800ba09070000
:103fd8001e0090000080fa00000006000400fa00ad
:103fe800100798001e00900080109000010f7800c4
:103ff8001e0078000080fa00000006000400fa00a5
:10400800100798009e009000010f78001e007800ad
:10401800920a07000080fa00000006000a00fa0071
:104028002007980031079800420798000000eb002d
:10403800000f78002e009000801090001107980063
:104048002e009000201090000000e0000c003a00c4
:104058002e009000100078000000e0004a003a00ae
:104068002e0090001000900086fa0700000f7800dc
:104078002e0090008000eb001100980042003700ed
:104088004e0090000000e00019003a002e00900059
:10409800a01090002e0090002000900001017800f0
:1040a800be009000c8f407002e009000a000900009
:1040b8002e00900020109000808040002e0090007c
:1040c800210098002e009000a00090002e00900083
:1040d80010009000808f50002b0039002e009000b7
:1040e800900078002e0090002100980026003700ec
:1040f8002e009000a01090002e009000300090003c
:1041080001017800be009000aff407002e00900077
:10411800b00090002e009000201090000000ea00ef
:10412800808040002e009000310098002e00900002
:10413800b00090002e00900010007800808f500092
:10414800080031002e009000900090002e00900092
:10415800201090000000ea00808040002e009000af
:10416800310098004e009000e20f500006003a001f
:104178001e0090000000e000030032001e009000c6
:104188000000e900100798001e0090008000e80079
:104198002e009000011098001e0078000080fa00a0
:1041a800000006000400fa00000f780011079800cc
:1041b8001e007800201090000000e0001900320076
:1041c8001e007800b00090001e00780020109000bb
:1041d800808040001e007800310098001e007800a2
:1041e800b00090001e00780010009000808f5000f2
:1041f800040039001e007800900078001e00780046
:10420800310098001e007800a01090001e00780071
:104218003000900001017800800078001e009000b6
:1042280069f407000080fa00000006000400fa00a4
:1042380010079800130907001e009000f060900016
:10424800014f7800160037001e00900040109000c3
:104258000000e000070032008000eb001e00900024
:10426800220207000000e0000c00320066f9070097
:104278000a0037001e009000200890000000e000af
:104288000b0032001e00900074004000a2f80700e6
:104298000000e000010032005bf907001e4fe90052
:1042a8001e4078000004e000e7ff3c0001003700f2
:1042b800000000001e00900080c0eb0071609800b4
:1042c800fd080700ef0807001e009000e06090005e
:1042d800114798000d0037001e0090004000900024
:1042e8000000e0000d0032001e0090006800400051
:1042f80089f807000000e0000100320042f90700d9
:104308001e4090000040e900104798001e409000b1
:104318000004e000f0ff3c0001003700000000004e
:104328001e00900080c0eb0061609800e208070062
:104338000080fa00000006000400fa001007980048
:10434800d00807001e009000001090000000e00058
:1043580003003a0010002000000f78000200370028
:104368000000eb00000f7800d30807001e0078005b
:104378000080fa00000006000400fa001007980008
:104388001e009000001090000000e00003003a00ba
:1043980010002000000f7800020037000000eb003a
:1043a800000f78001e0078000080fa000000060068
:1043b8000400fa0010079800b20807001e009000d9
:1043c800801090001e00900010109000808f500008
:1043d80003003a0010002000000f780002003700a8
:1043e8000000eb00000f7800b30807001e007800fb
:1043f8000080fa00000006000400fa001007980088
:104408001e009000801090001e0090001010900078
:10441800808f500003003a0010002000000f780041
:10442800020037000000eb00000f78001e00780043
:104438000080fa00000006000c00fa00200798002f
:10444800310798004207980053079800ae00900083
:104458001107980011028000f0f12f000080600021
:104468000050a000100288000000000000000000ba
:104478001e009000ceff07000000e0001900320087
:104488004e009000de009000e00f5000e08f5800d2
:104498000d0032001e009000680040000001780006
:1044a8004e009000de009000c90407001102800051
:1044b800f0f12f000080600010028800000000006a
:1044c800c0ff2f003300370011028000f0f12f00e9
:1044d8000080600010028800000000000000eb006f
:1044e8002c00370011028000f0f12f0000806000de
:1044f800100288000000000011028000f0f12f0077
:10450800008060000050a000100288000000000039
:10451800000000001e009000801090001e00900017
:1045280010109000808f5000120031000001eb0045
:10453800be0090001e009000b8fe0700100020008a
:10454800000f78001e009000200890000000e00096
:104558000a0032001e00900074004000ab050700fe
:104568000000e00005003200b0ff2f00000f7800c7
:10457800020037000000eb00000f780011028000f5
:10458800f0f12f0000806000100288000000000099
:104598001e0078000080fa00000006000c00fa00f7
:1045a80020079800310798004207980053079800a1
:1045b800ae0090001107980011028000f0f12f0062
:1045c800008060000050a000100288000000000079
:1045d800000000001e009000001090000000e000a5
:1045e80019003a004e009000de009000e00f5000e5
:1045f800e08f58000d0032001e009000740040004b
:10460800000178004e009000de0090007004070062
:1046180011028000f0f12f00008060001002880075
:1046280000000000c0ff2f004b003700110280007f
:10463800f0f12f00008060001002880000000000e8
:104648000000eb004400370011028000f0f12f0059
:104658000080600010028800000000001102800045
:10466800f0f12f00008060000050a00010028800c8
:1046780000000000000000001e00900000109000e4
:104688000000e0002c0032001e009000b0009000f6
:104698001e00900020109000808040001e009000b6
:1046a800310098001e009000b00090001e0090009d
:1046b80010009000808f5000040039001e00900008
:1046c800900078001e009000310098001e009000b5
:1046d800001090008000e9001e0090000110980072
:1046e8001e009000a01090001e0090003000900066
:1046f80001017800800078003e00900032f3070046
:1047080010002000000f78001e009000400090006c
:104718000000e0000a0032001e009000680040001f
:104728003a0507000000e00005003200b0ff2f0046
:10473800000f7800020037000000eb00000f78003f
:1047480011028000f0f12f00008060001002880044
:10475800000000001e0078000080fa00000006003b
:104768000800fa00100798002107980032079800ff
:104778009e009000010f78001e00780080109000c5
:104788001e00780010109000808f50001200310039
:104798000001eb00ae0090001e0078001ffe07002d
:1047a8003e0090000000e0000b003a001e00780078
:1047b800200890000000e000070032009e0078000a
:1047c80074804000110507000000e000020032007c
:1047d80010002000010037003e0090000080fa0021
:1047e800000006000a00fa00200798003107980028
:1047f80042079800ae009000110798001e00900034
:10480800001090000000e000310032001e0090000f
:10481800b00090001e0090002010900080804000a2
:104828001e009000310098001e009000b00090001b
:104838001e00900010009000808f50000400390086
:104848001e009000900078001e0090003100980033
:104858001e009000001090008000e9001e009000eb
:10486800011098001e009000a01090001e009000fb
:104878003000900001017800800078003e00900030
:10488800d1f207004e009000100078000000e00010
:104898000c003a001e009000400090000000e0006c
:1048a800080032001e00900068004000d70407008e
:1048b8000000e000030032004e00900011002000cc
:1048c8000108780010002000000f7800020037006f
:1048d8000000eb00000f78001e0078000080fa004e
:1048e800000006000a00fa00100798002207980046
:1048f80033079800410798009e009000010f780048
:10490800600707001e00780060609000e14f4000db
:1049180003003a001e0078008040eb0061609800b8
:104928001e00780070609000e14f400003003a00dc
:104938001e0078008040eb00716098005e07070059
:104948001e007800001090000000e00006003a0009
:104958009e00780074804000ce0090002e019000e8
:10496800be019000d5f607001e0078002ffe070054
:104978000080fa00000006000400fa001007980002
:104988000041eb00210020001e00900005fb0700fd
:10499800000f78001e0078000080fa000000060072
:1049a8000600fa001007980021079800350707004d
:1049b8001e009000401090000000e000030032004c
:1049c8000000eb00000f78000c0037001e0090007c
:1049d800001090000000e000030032000000eb002f
:1049e800000f7800050037001e009000ae00900010
:1049f8004110980010002000000f78002e070700d3
:104a08001e0078000080fa00000006000800fa0086
:104a18002007980031079800ae0090001107980011
:104a28001e009000c01090003e009000808f500043
:104a3800030032000000eb00000f78000e00370082
:104a48001e009000001090000000e00003003200fb
:104a58000000eb00000f7800070037000907070087
:104a68001e0090008000eb0041109800120707001c
:104a780010002000000f78001e0078000080fa0067
:104a8800000006000800fa001007980022079800a6
:104a9800330798000000eb00000f78000002eb00dd
:104aa8002e019000be0190008e0078001e0090003c
:104ab80043fc07001e0078000080fa000000060092
:104ac8000400fa00100798000000eb00000f7800bf
:104ad8000001eb008e0078001e009000d2fc070059
:104ae8001e0078000080fa00000006000a00fa00a4
:104af80030079800410798003e009000c0109000d1
:104b0800110798000000eb00000f78001e009000cd
:104b1800801090001e00900010109000808f5000b0
:104b28001d0031001e009000f06090004147980081
:104b3800660047004e019000800078001e0090003b
:104b480036fd0700000f78004e409000e14f40000e
:104b58000c003a001e009000200890000000e000c1
:104b68000d0032001e009000740040006af6070035
:104b78000000e0000800320010002000000f78005c
:104b8800050037004e4090000040e8008040780063
:104b98001e009000716098001e0078000080fa00e6
:104ba800000006000200fa000000eb00000f780089
:104bb80046020700c04180000000e0000800320003
:104bc800a5832000340020008001eb0002082000ab
:104bd800c1a528000077220039f20700000f7800ed
:104be8001e0078000080fa00000006000e00fa009f
:104bf800100798002207980033079800410798008b
:104c08005407980065079800800120006207070094
:104c1800000f78001e0078000000e0000800320055
:104c28001e037800ee0290005e029000ce00900015
:104c38002e019000be0190001e00900003000700a6
:104c48001e0078000080fa00000006000e00fa003e
:104c5800000f780012079800230798003107980082
:104c68004407980055079800660798006e00900062
:104c78000000e00014003200140207006e009000eb
:104c88001e0878006e0090001e019000ae01900092
:104c980072009800030898006e009000be01900012
:104ca800130898006e009000ce009000210898002c
:104cb8006e0090005e019000320898006e0090002f
:104cc8000080e800710507000080fa000000060077
:104cd8001a00fa006007980071079800020f980000
:104ce800130f9800240f9800360f9800470f98006c
:104cf8000000eb00000f7800c04180000000e000d9
:104d080023003200fe009000110798000e09900061
:104d18009e09900022079800330798006e009000c3
:104d2800400798007e009000e50f500012003c00fc
:104d3800fdf60700e20f500008003a00c04180006d
:104d48008e80e8000002eb003e099000ce0990003a
:104d58008afa0700000f78000d003700c041800074
:104d68008e80e8000002eb006011b80083fa0700ab
:104d7800000f780006003700c04180008e80e800f0
:104d88008001eb002e099000fefa0700000f780062
:104d98001e0078000080fa00000006000000fa00fb
:104da800d04180000080fa00000006000400fa00ec
:104db800100798009e009000010f78001e007800f0
:104dc80080089000700090000080fa000000060043
:104dd8000800fa0030079800be009000010f780024
:104de8001e00780010019000a001900012079800a2
:104df800230798001e009000ae0090000080fa0083
:104e0800000006000400fa00100798009e009000b9
:104e1800010f78001e007800100078000080fa006a
:104e2800000006000c00fa002007980031079800df
:104e38004207980053079800a04180004000900066
:104e480040009000000f78001e80e8006d05070004
:104e58001e00780010089000e10f500018003a007a
:104e68001e00780070019000800990002e009000cc
:104e7800be00900002004000838048002e0390008e
:104e8800be0390004e029000de0290000001be00ba
:104e98001e007800810007000000e00008003200d2
:104ea8006033b8000002eb002e019000be019000b4
:104eb8008000eb001e00780085ff070010079800af
:104ec8001e007800b00890001e0078000100010064
:104ed8000080fa00000006000800fa003007980079
:104ee800640047003d000700008fbe002e009000c0
:104ef800000178001e00be0002000700ac00070099
:104f0800f7ff37000c00fa003007980041079800b7
:104f1800520798004cf30700640047004700070059
:104f2800008fbe002e0090000000e00026003a002e
:104f38005e0090000000e0000b003a003e00900088
:104f4800ce009000be0f5000ae8f580006003e0005
:104f580043f307001e01be003e009000ce00900003
:104f6800b0ff07001b0037005e0090000000e00063
:104f780007003200b04180001000780000f0a70060
:104f88000000ea000000e9004f00de00500798002a
:104f98003e009000ce0090003e015000ae815800c7
:104fa800c0418000de0090004efe07002cf3070091
:104fb8000000e00006003a004e3502000000000044
:104fc800000000000300370025f307000100370048
:104fd800000000000080fa00000006000600fa0049
:104fe80020079800a04180001000780000f0a7007a
:104ff8000000ea000000e9004f00de00ae0090006b
:10500800800878002e009000100078000000e00072
:1050180005003a00a041800040009000301f780051
:1050280020177800020037006000b800008fbe002b
:105038001e00be000080fa00000006000600fa000c
:10504800200798005bf30700008fbe00e041800056
:10505800f14180001e01be00800f5100818f590070
:1050680005003100d70007002e0090001100200035
:1050780001087800030037002e0090008000eb0044
:10508800010878001e01be00e2418800f341880053
:105098001e00be000080fa00000006001000fa00a2
:1050a80010079800220798003307980044079800d3
:1050b8005507980066079800770798000000eb00ee
:1050c800000f78001e0090002e019000be01900095
:1050d80012009800230098001e0090009e01900086
:1050e800530098002e019000be0190004e009000e1
:1050f800de009000800f5100818f590014003e009f
:105108004e019000de0190006e009000fe009000bd
:1051180000015100818159001e0090008008900014
:1051280070009000800f5100818f590003003900f2
:1051380010002000000f78001a0037001e009000b1
:105148008080e800b0418000750407001500370032
:105158004e019000de0190006e009000fe0090006d
:10516800800f5100818f59000a0031002e019000f4
:10517800be0190006e009000fe009000800f51006c
:10518800818f59000300390010002000000f7800bb
:10519800040037001e0090008080e800a0418000d5
:1051a8005f0407001e0078000080fa000000060077
:1051b8001600fa007a0037005e0090000000e00058
:1051c8000c003d006a004700008fe8001e007800d0
:1051d800900278001e007800b00090002000900037
:1051e8001e017800120290000001be000400780041
:1051f800050001005e0090000000e0006800350036
:105208008e089000110798001e0090006000900022
:105218000000e000030032001e0090000080e8005b
:10522800780407007400470084ff070020079800ef
:10523800310798005e009000e50f50004c003200e6
:10524800e50f500007003c00e30f50004b00320010
:10525800e30f500032003c000000e0004900350038
:1052680007003700e80f500048003200e80f5000f0
:1052780003003500e90f50002900320048003700cc
:105288006e019000fe0190006e029000fe029000f8
:105298001e009000800890007000900004004000fc
:1052a800858048000203be002e029000be029000d6
:1052b8000001be001e00900078ff07000000e0001b
:1052c800340032001e009000b00890001e009000cc
:1052d800010001001e00900010089000e10f50002e
:1052e8002e003a006e019000fe0190001e00900012
:1052f8008008900070009000020040008380480001
:105308006033b8000002eb000001be008000eb0033
:105318001e0090006efe070040079800200037002e
:105328006e009000fe0090001e0190007001980031
:10533800010998001e0090007001900080099000fb
:105348002e009000be0090000200400083804800bc
:105358002e039000be0390002e029000be02900023
:105368000001be001e0090004cff07000c00370033
:105378001e009000b9050700090037000000000072
:10538800070037000000000005003700000000009b
:105398000300370000000000010037000000000093
:1053a800c0418000ea0047000002eb006011b8002d
:1053b80003fa07000000e0007fff3a000080fa00cf
:1053c800000006000e00fa0034003700a0418000fb
:1053d80040009000301f780020177800a04180001e
:1053e8004000900040009000200798002e00900098
:1053f8000080e800030407002e009000b008900029
:105408002e009000010001002e009000100890006e
:10541800e10f500021003a002e0090008008900013
:10542800700090003e014000ae8148000200be00be
:1054380030079800410798003e009000ce00900089
:10544800be0f5000ae8f58000d0036002e009000a1
:105458003e019000ce0190001200980023009800b1
:105468002e009000ae019000530098002e0090008e
:105478008080e800a0418000a903070007003700ea
:105488006033b8000002eb001e01be008000eb0094
:105498002e0090000efe070050079800a0418000e3
:1054a800100078000000e000c8ff3a00a141800029
:1054b80061079800b0418000a04188006e0190000b
:1054c800b24188000080fa00000006000000fa00df
:1054d8006c040700c04180000000e0000d003a00a5
:1054e800a0d121004e03070060d221004c03070021
:1054f800a0d12100a041880060d22100b0418800dd
:105508000041eb00a10020002003200025f807003f
:10551800c0418800680407000080fa000000060007
:105528000600fa0020079800ae009000010f7800ee
:10553800540407001e0078006000900000f0a700e7
:105548000000ea000000ea004f00de0010079800a3
:10555800590407001e0090000080fa0000000600b1
:105568000600fa0020079800ae009000010f7800ae
:10557800440407001e007800a00890001107980056
:105588004d0407001e0090000080fa00000006008d
:105598000600fa0010079800210798009e00900066
:1055a800010f7800370407001e007800ae00900055
:1055b80021089800400407000080fa000000060057
:1055c8001600fa006007980071079800020f98000b
:1055d800130f9800240f9800e0ff2f001007980081
:1055e800ee009000210798007e0190003207980095
:1055f8000e0990009e0990004207980053079800f2
:10560800c04180008e80e8008001eb002e099000e8
:10561800dcf80700000f78001e0078000080fa0010
:10562800000006001800fa0060079800710798004b
:10563800020f9800130f9800240f9800350f980058
