:020000040000fa
:080000000001040000000000f3
:020000040000fa
:040008004a020000a8
:020000040000fa
:04000c004a020000a4
:020000040000fa
:040010004a020000a0
:020000040000fa
:040014004a0200009c
:020000040000fa
:040018004a02000098
:020000040000fa
:04001c004a02000094
:020000040000fa
:040020004a02000090
:020000040000fa
:040024004a0200008c
:020000040000fa
:040028004a02000088
:020000040000fa
:04002c004a02000084
:020000040000fa
:040030004a02000080
:020000040000fa
:0400340004020000c2
:020000040000fa
:040038004a02000078
:020000040000fa
:04003c004a02000074
:020000040000fa
:040040004a02000070
:020000040000fa
:040044004a0200006c
:020000040000fa
:040048004a02000068
:020000040000fa
:04004c004a02000064
:020000040000fa
:040050004a02000060
:020000040000fa
:040054003402000072
:020000040000fa
:040058004a02000058
:020000040000fa
:04005c004a02000054
:020000040000fa
:040060004a02000050
:020000040000fa
:040064004a0200004c
:020000040000fa
:040068004a02000048
:020000040000fa
:04006c004a02000044
:020000040000fa
:040070004a02000040
:020000040000fa
:040074004a0200003c
:020000040000fa
:040078004a02000038
:020000040000fa
:04007c004a02000034
:020000040000fa
:040080004a02000030
:020000040000fa
:040084004a0200002c
:020000040000fa
:040088004a02000028
:020000040000fa
:04008c004a02000024
:020000040000fa
:040090004a02000020
:020000040000fa
:040094004a0200001c
:020000040000fa
:040098004a02000018
:020000040000fa
:04009c004a02000014
:020000040000fa
:0400a0004a02000010
:020000040000fa
:0400a4004a0200000c
:020000040000fa
:0400a8004a02000008
:020000040000fa
:0400ac004a02000004
:020000040000fa
:0400b0004a02000000
:020000040000fa
:0400b4004a020000fc
:020000040000fa
:0400b8004a020000f8
:020000040000fa
:0400bc004a020000f4
:020000040000fa
:0400c0004a020000f0
:020000040000fa
:0400c4004a020000ec
:020000040000fa
:0400c8004a020000e8
:020000040000fa
:0400cc004a020000e4
:020000040000fa
:0400d0004a020000e0
:020000040000fa
:0400d4004a020000dc
:020000040000fa
:0400d8004a020000d8
:020000040000fa
:0400dc004a020000d4
:020000040000fa
:0400e0004a020000d0
:020000040000fa
:0400e4004a020000cc
:020000040000fa
:0400e8004a020000c8
:020000040000fa
:0400ec004a020000c4
:020000040000fa
:0400f0004a020000c0
:020000040000fa
:0400f4004a020000bc
:020000040000fa
:0400f8004a020000b8
:020000040000fa
:0400fc004a020000b4
:020000040000fa
:040100004a020000af
:020000040000fa
:040104004a020000ab
:020000040000fa
:040108004a020000a7
:020000040000fa
:04010c004a020000a3
:020000040000fa
:040110004a0200009f
:020000040000fa
:040114004a0200009b
:020000040000fa
:040118004a02000097
:020000040000fa
:04011c004a02000093
:020000040000fa
:040120004a0200008f
:020000040000fa
:040124004a0200008b
:020000040000fa
:040128004a02000087
:020000040000fa
:04012c004a02000083
:020000040000fa
:040130004a0200007f
:020000040000fa
:040134004a0200007b
:020000040000fa
:040138004a02000077
:020000040000fa
:04013c004a02000073
:020000040000fa
:040140004a0200006f
:020000040000fa
:040144004a0200006b
:020000040000fa
:040148004a02000067
:020000040000fa
:04014c004a02000063
:020000040000fa
:040150004a0200005f
:020000040000fa
:040154004a0200005b
:020000040000fa
:040158004a02000057
:020000040000fa
:04015c004a02000053
:020000040000fa
:040160004a0200004f
:020000040000fa
:040164004a0200004b
:020000040000fa
:040168004a02000047
:020000040000fa
:04016c004a02000043
:020000040000fa
:040170004a0200003f
:020000040000fa
:040174004a0200003b
:020000040000fa
:040178004a02000037
:020000040000fa
:04017c004a02000033
:020000040000fa
:040180004a0200002f
:020000040000fa
:040184004a0200002b
:020000040000fa
:040188004a02000027
:020000040000fa
:04018c004a02000023
:020000040000fa
:040190004a0200001f
:020000040000fa
:040194004a0200001b
:020000040000fa
:040198004a02000017
:020000040000fa
:04019c004a02000013
:020000040000fa
:0401a0004a0200000f
:020000040000fa
:0401a4004a0200000b
:020000040000fa
:0401a8004a02000007
:020000040000fa
:0401ac004a02000003
:020000040000fa
:0401b0004a020000ff
:020000040000fa
:0401b4004a020000fb
:020000040000fa
:0401b8004a020000f7
:020000040000fa
:0401bc004a020000f3
:020000040000fa
:0401c0004a020000ef
:020000040000fa
:0401c4004a020000eb
:020000040000fa
:0401c8004a020000e7
:020000040000fa
:0401cc004a020000e3
:020000040000fa
:0401d0004a020000df
:020000040000fa
:0401d4004a020000db
:020000040000fa
:0401d8004a020000d7
:020000040000fa
:0401dc004a020000d3
:020000040000fa
:0401e0004a020000cf
:020000040000fa
:0401e4004a020000cb
:020000040000fa
:0401e8004a020000c7
:020000040000fa
:0401ec004a020000c3
:020000040000fa
:0401f0004a020000bf
:020000040000fa
:0401f4004a020000bb
:020000040000fa
:0401f8004a020000b7
:020000040000fa
:0401fc004a020000b3
:020000040000fa
:100200004f8220000e7f24000e01880000000000b5
:10021000000020000000e000020032000001200089
:1002200020028800140007009c0007000000e00086
:1002300003003a0040c12000010020000200370006
:100240000000200001002000810f7000010032003a
:1002500014000700000020000000e000020032004f
:1002600000000200000000006e0c02000000000010
:100270000040da000000fe004440a90020002000f9
:100280000000e00003003200100020009001880010
:100290004440a800000006008a1f78008b1f7800e9
:1002a00000000600a1028800800478000000eb0036
:1002b0001f003700e284440054a0b4009905ba003e
:1002c000e284440054a0b4009906ba00e2844400d9
:1002d00054a0b4000006eb00476fde00fd07b2003b
:1002e000ae018800636ce10003003a00eaff0700fa
:1002f0000000eb000e003700606ce10008003a00df
:10030000004deb000a05e800020039003420ec0043
:100310000af0a0008b05e900f9ff3e000400370059
:100320006168e100010032000086eb000b0007006d
:1003300019c7ba001905ba000e04e00003003a001c
:100340000a00e000dbff3a0000000600fe07b200f2
:10035000ae0288008a047800f5ff37000cd0a300b5
:10036000e20f4d001c00390089027800354dba00bb
:100370000a05e800020039003420ec000af0a00071
:100380008b05e9000f003200254dba000a05e80090
:10039000020039003420ec000af0a0008b05e900cf
:1003a000080032000c00e0000600320015cdba0053
:1003b0000a05e800020039003420ec000af0a00031
:1003c0008b05e9008984e80054a0b4000b00e0002c
:1003d000e2ff3a00000006009902ba00055d7800cd
:1003e0008b05e900f7ff3200c82ade00055d7800c2
:1003f0008b05e900f3ff32000c00e000f1ff320052
:1004000019ddba00eeff370000a0fe003200f80050
:100410003400f800881f780018002000a801880028
:1004200018002000980188004f0478000000fa00ae
:1004300010002000c0408800604080000000e800fc
:1004400060408800704080000000e8007040880034
:100450008860a9000080fa003400f9003200f90039
:100460000080fe0000400600801f78000000fa00b7
:10047000f01c80000040780010e8b7001000200059
:10048000904088008960a9000080fa004f00780041
:10049000004006000040da000000fe0000000500f9
:1004a0000001be00220007000470a70003f0a100b5
:1004b0006509b100160032000d0035006828e10022
:1004c00006003500f0ff2f00f1ff27000300e000d9
:1004d00013003b0001002800000005000000400060
:1004e000818048008502e900fcff3a0008003700df
:1004f000f88f420002003c008000eb000000050085
:100500008100d1000080d3008502e800fcff3a00a2
:100510000300e00002003b0060001000e0801800d3
:10052000000006004f89de008201780032023700a9
:10053000c70ade00f107b200f50fb2000800320072
:10054000e1cf4200020032000170a000240005004b
:10055000810f70000100320004080500440005000e
:10056000810f700002003a00140005008502e900c6
:100570000000400081c04800fcff3b000170a0006b
:10058000240005000c00fa00889fbe008a9fbe0070
:100590008c9fbe007d0207000206be008405780025
:1005a0000200be0002002000e801070005003a003a
:1005b0008b02b30012002000e401070001003a00a2
:1005c000f8856d000c01be00c60007000800be00e3
:1005d0009b0032000b08a3009e003a000df0a7001c
:1005e0000be0a00009f0a7000bf0a00009f0a100ab
:1005f0000801be00bb0007000bf0a600950032000a
:1006000001003c000bd0a0008acf7500b20033007f
:100610006000b8006250e10099003900a1003e007e
:100620000b28a300a2003a000bf8a300060032003a
:100630000b58a300a70032000801be00a900070064
:100640000800be00940032000800be00b0000700a1
:100650000004be00050578000bf0a7000b30a600d3
:100660000bf0a1005b079800324f200053f32300ea
:10067000dd01070005003d000800be00120020005b
:100680005a0207000004be000a05e9004a07980064
:100690006150b900a3ff0700008fbe000c01be002f
:1006a000cb0207007eff0700300798000100e00042
:1006b00002003d0060001000e0801800f2ff2700fb
:1006c000820f5000e08f580064003e000c00be0016
:1006d00073ff070020079800f2072000820f5000e8
:1006e000e08f580005003c0012f82f00f3ff2f00a8
:1006f000820f5000838f580009003d000a00e0007f
:100700000300320001003c000201ea00020578000b
:100710006000b800200798003a07980019003700d9
:100720003e0090006100b9007eff0700809fbe0080
:100730000c00be004109dd004811de007208b10066
:10074000820107000005be001e01be00a0020700d6
:100750004f01be007b000700809fbe000c00be0062
:100760000a01be00770007001e01be0098020700c4
:100770004f01be00740007008221270013f32300fd
:10078000930207000005be002e0090006100b90032
:1007900064ff070001f0a2000c01be006a00070020
:1007a0000006be000800be00320207000c01be00b9
:1007b000870207000a01be0063000700809fbe0099
:1007c0004a0007002e0590000af0a7000a05ea007b
:1007d000050037000800be000801be007c020700cb
:1007e0000004be000c00be000801be000a00a70005
:1007f000770207000006be000a05d100f5ff3a00a7
:100800005e01900002e0a600030037000001be0078
:1008100036000700a90007000004be004f00be001c
:10082000e80007000801be00690207003e019000d1
:10083000ee010700de0590000bf0a70001f0a2001a
:100840004f06be004f05be004f04be000080fa00f8
:100850000000060025000700f9ff37002700070009
:100860006000b8000bd0a7000bc0a0000be0a700f1
:100870000bc0a2000bc0a70001f82700f0ff370053
:100880000df8a300020032001e0007001900070047
:100890000bf8a300eaff32000b30a70001f0a20022
:1008a000e7ff37000df8a300f9ff3a00f7ff370024
:1008b0000801be000b000700e6ff320001003c000b
:1008c0000df0a2006000b8000df0a70009000700bd
:1008d000dbff37000b000700f1ff2700f0ff2f00c0
:1008e000d7ff3700010007003f01370001f8230060
:1008f0000000050001f8270000000500200220008c
:100900000100370010022000d040880000000600df
:100910000003be0006ff07006220e1000200320073
:100920000600be0005000500e507b100f107b200b2
:1009300004f023008480700007f0a70001f0a000fd
:100940002400050003f0a200889fbe008a9fbe001d
:100950008c1f78008d010700940133006450e10082
:100960004f0032006420e1005200320003826c002c
:1009700007003b000905d0000306d000820f540099
:100980000c065d0002003900020032008901780087
:10099000030678008582550004003d000003fd0039
:1009a0008103fd008502ea008b854200840f7200fe
:1009b00002003b0060001000e08018006011b800e9
:1009c0000005eb007a28e1000a00390006007800f3
:1009d000c75ddd00f707b200878075002d00370086
:1009e000828171000a017800610560008180d10078
:1009f0000080d3008502e900f9ff3b0006044000b7
:100a00008784480002003b0060041400e0841c005e
:100a10000988a300070032008a8171008281710079
:100a2000610164008904d1000884d3008b05e800cb
:100a3000170037000978a30013003a000b00e0000c
:100a4000130034008b05e9000804440089844c003d
:100a50000a4474000978a3000d003a000b00e0007e
:100a6000070034008b05e9000804440089844c0029
:100a700001003a000b0020000978a300f7ff3200c4
:100a80000001eb0002003700828171000a0178004a
:100a9000180107000cf0a70001f0a0004c0137007e
:100aa0006420e10002003a00838f6c004c013300a7
:100ab0000801be000200be0045013700889fbe004d
:100ac0008a9fbe008c1f7800300107003701330079
:100ad00003866c006450e1002e0032006420e100c7
:100ae000330032006150e1002f0032006120e1004c
:100af0003100320085855500eb07b0000900200069
:100b000008042000050037000804440089844c00d4
:100b10000a0031000603430087834b0000015300a5
:100b200081815b00f8ff33000203be000800a000d3
:100b30000804440089844c00f6ff3900c639dd0002
:100b40008301730001003200130020008904d100ea
:100b50000884d3000998a300050032000800a7000c
:100b60000300a0008904d1000884d3008b05e800ad
:100b70008904d1000884d3000001eb000281d20077
:100b8000dc00070001f0a1000cf0a70001f0a000bc
:100b90000f0137006420e100110132000801be009e
:100ba0000200be00f7ff37006120e1000c013200b7
:100bb0006000b800f3ff37000000200001f82700b4
:100bc000f0ff3700889fbe008a9fbe008c9fbe004a
:100bd0000004be0056fe07000800be006420e100cd
:100be00048003e005500320072212700132b2400dc
:100bf0007f00070047003c000800be00c2ec280050
:100c0000e32c2c0078000700470035000800be00e8
:100c100001f0a10002002000033823007200070049
:100c2000430035000800be00b2a32a0083fb230066
:100c3000670107000200200003f0230001f0a70075
:100c400003f0a00040ff070015fe07000005be00ee
:100c500034fe070001f0a2000006be0002002800da
:100c600013f323005a0107000801be0036ff0700f6
:100c7000809fbe000c00be0032082800e3952b00c8
:100c8000530107004f01be002fff07000006be0002
:100c90000001be004e010700809fbe0042412500ba
:100ca00083b823004a0107000200200003e8230064
:100cb00025ff07000c01be00450107000006be002d
:100cc0004f00be00f2f92b00c3d4230040010700ff
:100cd0000200200003f023001bff07000c01be00f0
:100ce00018ff07000001be000c00be0073ff0700e4
:100cf0000200200003f0230013ff070061014500fc
:100d0000ba0007004f06be004f05be004f04be00ec
:100d10000000060001f82700000020002202200049
:100d2000d2408800f7ff37006000b800fbff3700b3
:100d300001f8230000002000f2ff370009f8a300ab
:100d4000f0ff32006000b800eeff3700889fbe0061
:100d50008a9fbe000003be00f5fd070085057800f0
:100d600082815200020020006220e10004003a006b
:100d7000f307b100040035007718e10004003500e6
:100d80000600be00140037006000b8000f003700f6
:100d9000f50f2000faff2f008502d1000a85d3004d
:100da0008301e900fcff3b008184620000046500d0
:100db000890f7400f2ff32008582ea000a85ea009a
:100dc00081846200000465004a00070007f0a70064
:100dd00001f0a0000081eb000200e0004f05be0022
:100de0004f04be0000000600140020002c01370054
:100df000f4ff2f002a013700881f780003047800d1
:100e00000300e00007003d0060001000e0801800d3
:100e100060011900e081190002003b0001f02d0083
:100e2000030037000400070008f0a70001f0a0004d
:100e30004f04780000000600889fbe008a9fbe0015
:100e400000827000040271000482710026003200ea
:100e50000004be000200be006011b8006b09200053
:100e6000950220000182cf000a0039000541b1003f
:100e70000082cf00070039000541b1000982cf0090
:100e8000040039000541b1000882cf00010039009b
:100e90000541b10005425200120032000a003b0039
:100ea00082817100610164008100d1000080d30063
:100eb0008984d3000884d3008b05e8000442e8004d
:100ec000f7ff3a00070037000804440089844c000b
:100ed00000004800818048008b05e9000442e900d9
:100ee000f9ff3a00030007004f05be004f04be00a3
:100ef0000000060081002000618055000b003d00cd
:100f00000b00200061fe2f000100e1001d003400f5
:100f100082817100610164008904d1000884d300da
:100f20000000e800faff3a00710020006100640050
:100f300003007000020060000900320061044400f8
:100f4000e0844c000988a500050032008b05e8000c
:100f50006808e10002003a008904d1000884d30047
:100f6000f20f20000258e10005003d00c75ddd00e2
:100f7000f907b200898075000800780000000600bb
:100f80000bf827008b007800000005000004be006d
:100f900067fd07000003be000405be000200be009e
:100fa00063fd0700844f7500000006000200be00cc
:100fb0006450e100050036006420e10002003600c4
:100fc0000968a30001003a000800be000160a0000b
:100fd0004f0678004f05be004f04be00000006001b
:100fe000f0ff2f00f1ff2700f9ff37000003be00dc
:100ff0004ffd07006220e100020032000600be0043
:101000000000060085024100e30f20000328e100f4
:1010100005003c00a3fe2f000328e10007003d006f
:101020000500200001003700f50f200020022000fd
:10103000d04088006000b80008003700130020008e
:101040008381520005003d008100d1000080d30063
:101050008301e800fcff3a0005002000c72add00fc
:10106000f107b2008580700007f0a70001f0a00032
:1010700000000600889fbe008a9fbe008c9fbe00b5
:1010800023fe0700850478000005be006420e1000f
:1010900049003e006220e1000300320009003500f3
:1010a0000bf8a300440032000bf8a3000800320044
:1010b00010022000d0408800f0ff2f00f1ff270031
:1010c0003d00370001f82f00000020003a003700f3
:1010d0003d0007001bfe07000006be000a00be0020
:1010e000324f200053f3230041ff07000600340075
:1010f0000c00be003400070012fe07000006be0010
:101100000a00be00020037008904e9000c00be009e
:101110002d0007002e0007002b0007000afe070025
:101120000001be000c00be0064fe07000005be000a
:101130000001be00260007000006be00a2f3230047
:10114000430d2c0000fe0700809fbe000c00be0077
:10115000d2e32700d3f02b001d0007004f01be0093
:1011600056fe07000006be000a01be001800070078
:101170000a01be00f4fd07000006be006148b90088
:10118000e8fc07000005be0032082800e3952b00ac
:101190000f0007000c01be00ebfd07000006be00bb
:1011a0000a00be000200280013f323000800070015
:1011b0000c01be00e4fd07004f06be004f05be0057
:1011c0004f04be000000060003f0230002000500eb
:1011d000889fbe008a9fbe008c1f78006bff0700af
:1011e00072ff330003866c006450e100240032007b
:1011f0006420e100270032006150e100220032004b
:101200006120e100210032008b854200eb07b10034
:101210000134b800003ab8000804420089844a004a
:10122000013ab8000030b8008880400009014a0047
:1012300004003300000040008180480002014900a2
:101240008b05e900c909dd0083017000010032004f
:1012500013002000c814de004814dd004709de003a
:101260001200b200c808de000884700021ff0700e9
:1012700001f0a1000cf0a70001f0a00054ff37001e
:101280006120e10056ff32000801be000200be00ee
:10129000f7ff37006150e100fcff3a0050ff3700d4
:1012a000889fbe008a9fbe00841f780037ff07001a
:1012b0004f00780011003300f0ff2f00838f6c0087
:1012c00006003b00040565000a00a700080037007f
:1012d00009f0a6001000200008003700820f54001b
:1012e000838f5c00030039001000200001003e00e5
:1012f0000000200009f0a7000000ea004f05be0032
:0c1300004f04be000000e00000000600ea
:020000040000fa
:10130c000000fa001228ef0000000000904080005e
:10131c000000e000fdff32000028ef001000370055
:10132c0000408000e70f500008003c0000408000a7
:10133c000281200012417800c18120008270780067
:10134c00004080000000e800004088001228ef00f8
:10135c0000000000904080000000e000fdff320023
:10136c000181200091407800e0c3b30080cf500091
:10137c00ebff3a001228ef000080fa000000060094
:10138c000200fa00881f7800c0812000104078000d
:10139c000000fb0041062000810f5000420032008b
:1013ac0041062000810f50000a003c00210620005d
:1013bc00810f50001400320021062000810f5000d4
:1013cc0014003c0011062000810f50000b0032006d
:1013dc007500370061062000810f50004a00320072
:1013ec0061062000810f500033003500710620008b
:1013fc00810f5000680032006b003700d0002000d5
:10140c00a800070068003700d0002000b0000700db
:10141c006500370010002000304088001628ef00cf
:10142c000828ef0010002000000f7800160037008d
:10143c00c08120001e004000104078000000fb001e
:10144c0008fd2f0000044400004080001e005000e6
:10145c00cf80de0030fc07000001be000000200041
:10146c000112240044fc07000afc0700000078006d
:10147c0000c0b90080007800b040800000804000bf
:10148c00b04088001e0fe800004080009e007800ed
:10149c00808f5000e6ff3500e0002000810007003f
:1014ac000e28ef00400037000628ef00e000200077
:1014bc00870007003c003700c0c3b30011e8b70039
:1014cc00ca00070050c6b30011e8b700c7000700f8
:1014dc00e000200099000700e10f500003003a00e3
:1014ec0010c3b30011e8b7000200370000c3b3000b
:1014fc0011e8b700bd000700e0c3b30011e8b70066
:10150c00ba000700280037001000200010408800a7
:10151c001428ef0010002000000f78001600370090
:10152c00c08120001e004000104078000000fb002d
:10153c0008fd2f0000044400004080001e005000f5
:10154c00cf80de00f4fb07000001be00000020008d
:10155c000112240008fc0700cefb070000007800f5
:10156c0000c0b90080007800a040800000804000de
:10157c00a04088001e0fe800004080009e0078000c
:10158c00808f5000e6ff3500f0002000450007007a
:10159c000c28ef00040037000228ef00f0002000b8
:1015ac004b000700000000004f0478000080fa0098
:1015bc00000006000200fa00b1000700030037002b
:1015cc000000000001003700000000009040800087
:1015dc00e10f500008003a00018120009140780092
:1015ec00c0c3b30080cf500002003a0044ff070094
:1015fc0063ff07001228ef0010408000e10f50003d
:10160c000d003a0060408000000f7800a040800080
:10161c0082432f0080017800110009000381d8005b
:10162c009e007800808f500003003900f0002000ed
:10163c00330007000c28ef0030408000e10f500011
:10164c00dfff3a0071408000c0302000808f5000d6
:10165c00ddff3400404080000000e800404088007e
:10166c0041408000b0408000808f50000300350066
:10167c00e0002000220007000628ef000e28ef00f3
:10168c00d2ff37000000fa00b1338000f0ff2100d8
:10169c0000806000b03388007a26ef000080fa00ea
:1016ac00000006000200fa00000f78001100200074
:1016bc001e0078000008dd0080007800d033800028
:1016cc0001007000d03388000080fa000000060092
:1016dc000200fa00000f7800110020001e007800b4
:1016ec000008dd000080ea0080007800d033800024
:1016fc0000806000d03388000080fa0000000600f3
:10170c000200fa00000f7800d13380001e00780030
:10171c000008de00610060000000e00003003a00f9
:10172c001e007800dfff0700020037001e00780063
:10173c00e7ff07000080fa00000006000400fa0032
:10174c0010079800d13380001e0090000008de00c6
:10175c00610060000000e00003003a000000eb00b4
:10176c00000f78000200370010002000000f7800f6
:10177c001e0078000080fa00000006000000fa004d
:10178c00a13d800000fc2f00008060000010a00034
:10179c00a03d8800d13e8000f00f280080806000c2
:1017ac000030200001007000d03e88007006200040
:1017bc00001d88007e46a9009823ef009863a800be
:1017cc009960a80061058000f0ff2800008060008f
:1017dc0000c0a000600588008960a90099e3a800fa
:1017ec009b43a8000080fa00000006000000fa00ed
:1017fc0000000000d11c8000002020000080600050
:10180c000000e000fbff3a0011c8bf000000fb0025
:0c181c00e01c88000080fa0000000600bc
:020000040000fa
:10182800180800000200000082000000010000000b
:101838000c080000040000008000000010080000f0
:1018480004000000800000001c08000008000000e0
:1018580080000000000800000c000000800000006c
:1018680014080000040000008200000001000100cc
:10187800000000001a0800000200000080000000bc
:04188800000000005c
:020000040000fa
:10188c000000fa009421ef009021ef00a10c8000e1
:10189c00f0fc2f00008060000050a000a00c88001d
:1018ac0010002000900c880041058000f0ff2800fb
:1018bc000080600000c0a000400588008860a9007e
:1018cc009860a80095e1a8000080fa0000000600ce
:1018dc000000fa006bff0700a8ff070035ff0700a8
:0818ec000080fa000000060074
:020000040000fa
:020000040005f5
:045e0000ffff0000a0
:020000040000fa
:020000040005f5
:045e2000ffffff0081
:020000040000fa
:020000040005f5
:045e3000f8ffff0078
:020000040000fa
:020000040005f5
:045e3800bfffff00a9
:020000040000fa
:020000040005f5
:045e40009fffff00c1
:020000040000fa
:020000040005f5
:045e4800ffffff0059
:020000040000fa
:020000040005f5
:045e5000ffffff0051
:020000040000fa
:020000040005f5
:045e5800ffffff0049
:00000001FF
