:020000040000fa
:080000000001040000000000f3
:020000040000fa
:040008001a020000d8
:020000040000fa
:04000c001a020000d4
:020000040000fa
:040010001a020000d0
:020000040000fa
:040014001a020000cc
:020000040000fa
:040018001a020000c8
:020000040000fa
:04001c001a020000c4
:020000040000fa
:040020001a020000c0
:020000040000fa
:040024001a020000bc
:020000040000fa
:040028001a020000b8
:020000040000fa
:04002c001a020000b4
:020000040000fa
:040030001a020000b0
:020000040000fa
:040034001a020000ac
:020000040000fa
:040038001a020000a8
:020000040000fa
:04003c001a020000a4
:020000040000fa
:040040001a020000a0
:020000040000fa
:040044001a0200009c
:020000040000fa
:040048001a02000098
:020000040000fa
:04004c001a02000094
:020000040000fa
:040050001a02000090
:020000040000fa
:0400540004020000a2
:020000040000fa
:040058001a02000088
:020000040000fa
:04005c001a02000084
:020000040000fa
:040060001a02000080
:020000040000fa
:040064001a0200007c
:020000040000fa
:040068001a02000078
:020000040000fa
:04006c001a02000074
:020000040000fa
:040070001a02000070
:020000040000fa
:040074001a0200006c
:020000040000fa
:040078001a02000068
:020000040000fa
:04007c001a02000064
:020000040000fa
:040080001a02000060
:020000040000fa
:040084001a0200005c
:020000040000fa
:040088001a02000058
:020000040000fa
:04008c001a02000054
:020000040000fa
:040090001a02000050
:020000040000fa
:040094001a0200004c
:020000040000fa
:040098001a02000048
:020000040000fa
:04009c001a02000044
:020000040000fa
:0400a0001a02000040
:020000040000fa
:0400a4001a0200003c
:020000040000fa
:0400a8001a02000038
:020000040000fa
:0400ac001a02000034
:020000040000fa
:0400b0001a02000030
:020000040000fa
:0400b4001a0200002c
:020000040000fa
:0400b8001a02000028
:020000040000fa
:0400bc001a02000024
:020000040000fa
:0400c0001a02000020
:020000040000fa
:0400c4001a0200001c
:020000040000fa
:0400c8001a02000018
:020000040000fa
:0400cc001a02000014
:020000040000fa
:0400d0001a02000010
:020000040000fa
:0400d4001a0200000c
:020000040000fa
:0400d8001a02000008
:020000040000fa
:0400dc001a02000004
:020000040000fa
:0400e0001a02000000
:020000040000fa
:0400e4001a020000fc
:020000040000fa
:0400e8001a020000f8
:020000040000fa
:0400ec001a020000f4
:020000040000fa
:0400f0001a020000f0
:020000040000fa
:0400f4001a020000ec
:020000040000fa
:0400f8001a020000e8
:020000040000fa
:0400fc001a020000e4
:020000040000fa
:040100001a020000df
:020000040000fa
:040104001a020000db
:020000040000fa
:040108001a020000d7
:020000040000fa
:04010c001a020000d3
:020000040000fa
:040110001a020000cf
:020000040000fa
:040114001a020000cb
:020000040000fa
:040118001a020000c7
:020000040000fa
:04011c001a020000c3
:020000040000fa
:040120001a020000bf
:020000040000fa
:040124001a020000bb
:020000040000fa
:040128001a020000b7
:020000040000fa
:04012c001a020000b3
:020000040000fa
:040130001a020000af
:020000040000fa
:040134001a020000ab
:020000040000fa
:040138001a020000a7
:020000040000fa
:04013c001a020000a3
:020000040000fa
:040140001a0200009f
:020000040000fa
:040144001a0200009b
:020000040000fa
:040148001a02000097
:020000040000fa
:04014c001a02000093
:020000040000fa
:040150001a0200008f
:020000040000fa
:040154001a0200008b
:020000040000fa
:040158001a02000087
:020000040000fa
:04015c001a02000083
:020000040000fa
:040160001a0200007f
:020000040000fa
:040164001a0200007b
:020000040000fa
:040168001a02000077
:020000040000fa
:04016c001a02000073
:020000040000fa
:040170001a0200006f
:020000040000fa
:040174001a0200006b
:020000040000fa
:040178001a02000067
:020000040000fa
:04017c001a02000063
:020000040000fa
:040180001a0200005f
:020000040000fa
:040184001a0200005b
:020000040000fa
:040188001a02000057
:020000040000fa
:04018c001a02000053
:020000040000fa
:040190001a0200004f
:020000040000fa
:040194001a0200004b
:020000040000fa
:040198001a02000047
:020000040000fa
:04019c001a02000043
:020000040000fa
:0401a0001a0200003f
:020000040000fa
:0401a4001a0200003b
:020000040000fa
:0401a8001a02000037
:020000040000fa
:0401ac001a02000033
:020000040000fa
:0401b0001a0200002f
:020000040000fa
:0401b4001a0200002b
:020000040000fa
:0401b8001a02000027
:020000040000fa
:0401bc001a02000023
:020000040000fa
:0401c0001a0200001f
:020000040000fa
:0401c4001a0200001b
:020000040000fa
:0401c8001a02000017
:020000040000fa
:0401cc001a02000013
:020000040000fa
:0401d0001a0200000f
:020000040000fa
:0401d4001a0200000b
:020000040000fa
:0401d8001a02000007
:020000040000fa
:0401dc001a02000003
:020000040000fa
:0401e0001a020000ff
:020000040000fa
:0401e4001a020000fb
:020000040000fa
:0401e8001a020000f7
:020000040000fa
:0401ec001a020000f3
:020000040000fa
:0401f0001a020000ef
:020000040000fa
:0401f4001a020000eb
:020000040000fa
:0401f8001a020000e7
:020000040000fa
:0401fc001a020000e3
:020000040000fa
:10020000ef8020000e7f24000e0188000000000017
:10021000000020000000e000020032000001200089
:100220002002880014000700840007000000e0009e
:1002300003003a00a0322000010020000200370035
:100240000000200001002000810f7000010032003a
:1002500014000700000020000000e000020032004f
:1002600000000200000000003e0302000000000049
:100270000040da000000fe004440a90020002000f9
:100280000000e00003003200100020009001880010
:100290004440a800000006008a1f78008b1f7800e9
:1002a00000000600a1028800800478000000eb0036
:1002b0001f003700e284440054a0b4009905ba003e
:1002c000e284440054a0b4009906ba00e2844400d9
:1002d00054a0b4000006eb00476fde00fd07b2003b
:1002e000ae018800636ce10003003a00eaff0700fa
:1002f0000000eb000e003700606ce10008003a00df
:10030000004deb000a05e800020039003420ec0043
:100310000af0a0008b05e900f9ff3e000400370059
:100320006168e100010032000086eb000b0007006d
:1003300019c7ba001905ba000e04e00003003a001c
:100340000a00e000dbff3a0000000600fe07b200f2
:10035000ae0288008a047800f5ff37000cd0a300b5
:10036000e20f4d001c00390089027800354dba00bb
:100370000a05e800020039003420ec000af0a00071
:100380008b05e9000f003200254dba000a05e80090
:10039000020039003420ec000af0a0008b05e900cf
:1003a000080032000c00e0000600320015cdba0053
:1003b0000a05e800020039003420ec000af0a00031
:1003c0008b05e9008984e80054a0b4000b00e0002c
:1003d000e2ff3a00000006009902ba00055d7800cd
:1003e0008b05e900f7ff3200c82ade00055d7800c2
:1003f0008b05e900f3ff32000c00e000f1ff320052
:1004000019ddba00eeff3700801f78000000fa0007
:10041000f01c80000040780000e8b70010002000c9
:10042000104088008960a9000080fa004f00780021
:10043000004006000040da000000fe000000050059
:020000040000fa
:100440000000fa000428ef000000000010408000c7
:100450000000e000fdff3200100037002040800067
:10046000e70f500008003c00204080000280200080
:100470001241780061802000827078002040800066
:100480000000e800204088000228ef000000000083
:10049000104080000000e000fdff320001802000dd
:1004a0009140780010c2b30080cf5000ebff3a00bb
:1004b0000228ef000080fa00000006000000fa00a9
:1004c00060802000104078000000fb001106200032
:1004d000810f50000400320021062000810f5000df
:1004e0000400320006003700d00020004200070060
:1004f00003003700d00020004a0007000000000081
:100500000080fa00000006000000fa00f000200061
:1005100039000700e00020003700070020c7b300c3
:1005200001e8b7001f000700c5ff0700e3ff070051
:10053000fdff37000000fa00a13d800000fc2f0005
:10054000008060000010a000a03d8800d13e800027
:10055000f00f280080806000003020000100700053
:10056000d03e880070062000001d88007e46a9004d
:100570009823ef009863a8009960a80061058000a7
:10058000f0ff28000080600000c0a0006005880027
:100590008960a90099e3a8009b43a8000080fa00a5
:1005a000000006000000fa0000000000d11c8000de
:1005b00000202000008060000000e000fbff3a0007
:1005c00001c8bf000000fb00e01c88000080fa00aa
:1005d000000006000000fa00b1338000f0ff2100a7
:1005e00000806000b033880000002400d033880011
:1005f0000080fa00000006000200fa00000f7800f8
:10060000110020001e0078000008dd008000780046
:10061000d033800001007000d03388000080fa00e1
:10062000000006000200fa00000f78001100200010
:100630001e0078000008dd000080ea0080007800dd
:10064000d033800000806000d03388000080fa0042
:0406500000000600a0
:020000040000fa
:1006540000080000040000008000000006080000fc
:1006640008000000800000000408000002000000f0
:080674008000000000000000fe
:020000040000fa
:10067c000000fa00d4ff0700abff07009fff070044
:08068c000080fa0000000600e6
:020000040000fa
:020000040005f5
:045e0000ffff0000a0
:020000040000fa
:020000040005f5
:045e2000ffffff0081
:020000040000fa
:020000040005f5
:045e3000f8ffff0078
:020000040000fa
:020000040005f5
:045e3800bfffff00a9
:020000040000fa
:020000040005f5
:045e40009fffff00c1
:020000040000fa
:020000040005f5
:045e4800ffffff0059
:020000040000fa
:020000040005f5
:045e5000ffffff0051
:020000040000fa
:020000040005f5
:045e5800ffffff0049
:00000001FF
