:020000040000fa
:080000000001040000000000f3
:020000040000fa
:04000800560400009a
:020000040000fa
:04000c005604000096
:020000040000fa
:040010005604000092
:020000040000fa
:04001400560400008e
:020000040000fa
:04001800560400008a
:020000040000fa
:04001c005604000086
:020000040000fa
:040020005604000082
:020000040000fa
:04002400560400007e
:020000040000fa
:04002800560400007a
:020000040000fa
:04002c005604000076
:020000040000fa
:040030005604000072
:020000040000fa
:04003400560400006e
:020000040000fa
:04003800560400006a
:020000040000fa
:04003c005604000066
:020000040000fa
:040040005604000062
:020000040000fa
:04004400560400005e
:020000040000fa
:04004800560400005a
:020000040000fa
:04004c005604000056
:020000040000fa
:040050005604000052
:020000040000fa
:0400540004020000a2
:020000040000fa
:04005800560400004a
:020000040000fa
:04005c005604000046
:020000040000fa
:040060005604000042
:020000040000fa
:04006400560400003e
:020000040000fa
:04006800560400003a
:020000040000fa
:04006c005604000036
:020000040000fa
:040070005604000032
:020000040000fa
:04007400560400002e
:020000040000fa
:04007800560400002a
:020000040000fa
:04007c005604000026
:020000040000fa
:040080005604000022
:020000040000fa
:04008400560400001e
:020000040000fa
:04008800560400001a
:020000040000fa
:04008c005604000016
:020000040000fa
:040090005604000012
:020000040000fa
:04009400560400000e
:020000040000fa
:04009800560400000a
:020000040000fa
:04009c002604000036
:020000040000fa
:0400a0005604000002
:020000040000fa
:0400a40056040000fe
:020000040000fa
:0400a80056040000fa
:020000040000fa
:0400ac0056040000f6
:020000040000fa
:0400b00056040000f2
:020000040000fa
:0400b40056040000ee
:020000040000fa
:0400b80056040000ea
:020000040000fa
:0400bc0056040000e6
:020000040000fa
:0400c00056040000e2
:020000040000fa
:0400c40056040000de
:020000040000fa
:0400c80056040000da
:020000040000fa
:0400cc0056040000d6
:020000040000fa
:0400d00056040000d2
:020000040000fa
:0400d40056040000ce
:020000040000fa
:0400d80056040000ca
:020000040000fa
:0400dc0056040000c6
:020000040000fa
:0400e00056040000c2
:020000040000fa
:0400e40056040000be
:020000040000fa
:0400e80056040000ba
:020000040000fa
:0400ec0056040000b6
:020000040000fa
:0400f00056040000b2
:020000040000fa
:0400f40056040000ae
:020000040000fa
:0400f80056040000aa
:020000040000fa
:0400fc0056040000a6
:020000040000fa
:0401000056040000a1
:020000040000fa
:04010400560400009d
:020000040000fa
:040108005604000099
:020000040000fa
:04010c005604000095
:020000040000fa
:040110005604000091
:020000040000fa
:04011400560400008d
:020000040000fa
:040118005604000089
:020000040000fa
:04011c005604000085
:020000040000fa
:040120005604000081
:020000040000fa
:04012400560400007d
:020000040000fa
:040128005604000079
:020000040000fa
:04012c005604000075
:020000040000fa
:040130005604000071
:020000040000fa
:04013400560400006d
:020000040000fa
:040138005604000069
:020000040000fa
:04013c005604000065
:020000040000fa
:040140005604000061
:020000040000fa
:04014400560400005d
:020000040000fa
:040148005604000059
:020000040000fa
:04014c005604000055
:020000040000fa
:040150005604000051
:020000040000fa
:04015400560400004d
:020000040000fa
:040158005604000049
:020000040000fa
:04015c005604000045
:020000040000fa
:040160005604000041
:020000040000fa
:04016400560400003d
:020000040000fa
:040168005604000039
:020000040000fa
:04016c005604000035
:020000040000fa
:040170005604000031
:020000040000fa
:04017400560400002d
:020000040000fa
:040178005604000029
:020000040000fa
:04017c005604000025
:020000040000fa
:040180005604000021
:020000040000fa
:04018400560400001d
:020000040000fa
:040188005604000019
:020000040000fa
:04018c005604000015
:020000040000fa
:040190005604000011
:020000040000fa
:04019400560400000d
:020000040000fa
:040198005604000009
:020000040000fa
:04019c005604000005
:020000040000fa
:0401a0005604000001
:020000040000fa
:0401a40056040000fd
:020000040000fa
:0401a80056040000f9
:020000040000fa
:0401ac0056040000f5
:020000040000fa
:0401b00056040000f1
:020000040000fa
:0401b40056040000ed
:020000040000fa
:0401b80056040000e9
:020000040000fa
:0401bc0056040000e5
:020000040000fa
:0401c00056040000e1
:020000040000fa
:0401c40056040000dd
:020000040000fa
:0401c80056040000d9
:020000040000fa
:0401cc0056040000d5
:020000040000fa
:0401d00056040000d1
:020000040000fa
:0401d40056040000cd
:020000040000fa
:0401d80056040000c9
:020000040000fa
:0401dc0056040000c5
:020000040000fa
:0401e00056040000c1
:020000040000fa
:0401e40056040000bd
:020000040000fa
:0401e80056040000b9
:020000040000fa
:0401ec0056040000b5
:020000040000fa
:0401f00056040000b1
:020000040000fa
:0401f40056040000ad
:020000040000fa
:0401f80056040000a9
:020000040000fa
:0401fc0056040000a5
:020000040000fa
:100200006f8020000e7f24000e0188000000000097
:10021000000020000000e000020032000001200089
:100220002002880014000700a20107000000e0007f
:1002300003003a00005920000100200002003700ae
:100240000000200001002000810f7000010032003a
:1002500014000700000020000000e000020032004f
:1002600000000200000000005c040200000000002a
:100270000040da000000fe004440a90020002000f9
:100280000000e00003003200100020009001880010
:100290004440a800000006008a1f78008b1f7800e9
:1002a00000000600a1028800800478000000eb0036
:1002b0001f003700e284440054a0b4009905ba003e
:1002c000e284440054a0b4009906ba00e2844400d9
:1002d00054a0b4000006eb00476fde00fd07b2003b
:1002e000ae018800636ce10003003a00eaff0700fa
:1002f0000000eb000e003700606ce10008003a00df
:10030000004deb000a05e800020039003420ec0043
:100310000af0a0008b05e900f9ff3e000400370059
:100320006168e100010032000086eb000b0007006d
:1003300019c7ba001905ba000e04e00003003a001c
:100340000a00e000dbff3a0000000600fe07b200f2
:10035000ae0288008a047800f5ff37000cd0a300b5
:10036000e20f4d001c00390089027800354dba00bb
:100370000a05e800020039003420ec000af0a00071
:100380008b05e9000f003200254dba000a05e80090
:10039000020039003420ec000af0a0008b05e900cf
:1003a000080032000c00e0000600320015cdba0053
:1003b0000a05e800020039003420ec000af0a00031
:1003c0008b05e9008984e80054a0b4000b00e0002c
:1003d000e2ff3a00000006009902ba00055d7800cd
:1003e0008b05e900f7ff3200c82ade00055d7800c2
:1003f0008b05e900f3ff32000c00e000f1ff320052
:1004000019ddba00eeff37003600f800809fbe000d
:10041000829fbe00849fbe00869fbe001600fa0029
:10042000f0002000780107000000eb00000f7800ca
:10043000f01c80000040780000e8b7000180200038
:100440009140780040c7b30080cf50000b003a00c5
:10045000104080000000e80010408800204080002c
:10046000e10f500002003a000428ef00ed003700d1
:100470001000200020408800ea00370001802000a2
:100480009140780030c7b30080cf50004d003a0053
:1004900020408000e10f500021003a0000000000e1
:1004a000d11c800000202000008060000000e000df
:1004b000fbff3a00f0062000e01c8800000000006e
:1004c000d11c800000202000008060000000e000bf
:1004d000fbff3a00e0062000e01c8800000000005e
:1004e000d11c800000202000008060000000e0009f
:1004f000fbff3a00a0002000e01c88000000000084
:10050000d11c800000202000008060000000e0007e
:10051000fbff3a00d0002000e01c8800c10037003b
:1005200000000000d11c800000202000008060003e
:100530000000e000fbff3a00f0062000e01c88000d
:1005400000000000d11c800000202000008060001e
:100550000000e000fbff3a0060062000e01c88007d
:1005600000000000d11c80000020200000806000fe
:100570000000e000fbff3a0060062000e01c88005d
:1005800000000000d11c80000020200000806000de
:100590000000e000fbff3a00a0002000e01c880003
:1005a00000000000d11c80000020200000806000be
:1005b0000000e000fbff3a00d0002000e01c8800b3
:1005c00098003700018020009140780020c6b300d9
:1005d00080cf500055003a00a0002000300798005e
:1005e00010408000100798000000eb00000f78001a
:1005f0001b0037009e0090003e0090000001780034
:10060000110009008280d8008000fd000103200055
:10061000808040001e00780000004000000047007d
:1006200068004000010878001e0fe8009e0090005e
:100630003e00900000017800110009008280d8007f
:100640008000fd009e009000808050003e009000e1
:1006500000017800110009008280d800100798007e
:100660009e0090003e009000808f5000e1ff31001e
:100670001e00900001032000808040001e007800d2
:1006800000004000000047006800400001087800ba
:100690001e0fe8009e007800210798000f00370029
:1006a00000000000d11c80000020200000806000bd
:1006b0000000e000fbff3a002e0090000000e9007f
:1006c000000040000000470040009000e01c88004f
:1006d0002e0090000000e900200798002e009000f6
:1006e0000000e000eeff3a0000000000d11c800096
:1006f00000202000008060000000e000fbff3a00c6
:10070000a0002000e01c880000000000d11c800038
:1007100000202000008060000000e000fbff3a00a5
:10072000d0002000e01c88003e003700018020003f
:100730009140780030c6b30080cf500039003a00b5
:100740000228ef0000000000d11c800000202000e3
:10075000008060000000e000fbff3a00300620004f
:10076000e01c880000000000d11c80000020200058
:10077000008060000000e000fbff3a00c00620009f
:10078000e01c880000000000d11c80000020200038
:10079000008060000000e000fbff3a0050062000ef
:1007a000e01c880000000000d11c80000020200018
:1007b000008060000000e000fbff3a00100620000f
:1007c000e01c880000000000d11c800000202000f8
:1007d000008060000000e000fbff3a0020072000de
:1007e000e01c880000000000d11c800000202000d8
:1007f000008060000000e000fbff3a00a000200045
:10080000e01c880000000000d11c800000202000b7
:10081000008060000000e000fbff3a00d0002000f4
:10082000e01c8800f0002000820007008960a90019
:100830000080fa004f03be004f02be004f01be0011
:100840004f00be003600f90000400600801f78000f
:100850003200f8003400f80010002000a0018800e9
:1008600010002000900188000000fa001040800075
:100870000000e8001040880020408000e10f500098
:1008800002003a000428ef000200370010002000a8
:10089000204088008ba0a9000080fa003400f900f5
:1008a0003200f9004f007800004006000040da00f6
:0808b0000000fe00000005003d
:020000040000fa
:1008b8000000fa00490007008400070067000700ed
:1008c800f00020004e000700e00020004c00070068
:1008d80000000000d11c8000002020000080600083
:1008e8000000e000fbff3a0020072000e01c880021
:1008f80000000000d11c8000002020000080600063
:100908000000e000fbff3a0050062000e01c8800d1
:1009180000000000d11c8000002020000080600042
:100928000000e000fbff3a0010062000e01c8800f1
:1009380000000000d11c8000002020000080600022
:100948000000e000fbff3a0040062000e01c8800a1
:1009580000000000d11c8000002020000080600002
:100968000000e000fbff3a0090072000e01c880030
:1009780000000000d11c80000020200000806000e2
:100988000000e000fbff3a00a0002000e01c880007
:1009980000000000d11c80000020200000806000c2
:1009a8000000e000fbff3a00d0002000e01c8800b7
:1009b800f00020001d00070020408000e10f5000db
:1009c80003003a00e00020000d000700faff37009e
:1009d800e000200015000700f7ff37000000fa00cc
:1009e800b1338000f0ff210000806000b033880040
:1009f80000002400d03388000080fa0000000600c0
:100a08000200fa00000f7800110020001e00780094
:100a18000008dd0080007800d033800001007000fd
:100a2800d03388000080fa00000006000200fa00b7
:100a3800000f7800110020001e0078000008dd007b
:100a48000080ea0080007800d033800000806000d9
:100a5800d03388000080fa00000006000000fa0089
:100a6800a13d800000fc2f00008060000010a00065
:100a7800a03d8800d13e8000f00f280080806000f3
:100a88000030200001007000d03e88007006200071
:100a9800001d88007e46a9009823ef009863a800ef
:100aa8009960a80061058000f0ff280000806000c0
:100ab80000c0a000600588008960a90099e3a8002b
:100ac8009b43a8000080fa00000006000000fa001e
:100ad800913c800000fc2f0000806000c000b30043
:100ae800903c88007f86a900100480000020a000a8
:100af80010048800b1058000f0f82f000080600025
:100b08000040a000b00588008ba0a9009ba0a80009
:080b18000080fa000000060055
:020000040000fa
:100b20000008000002000000800000000208000031
:100b30000200000080000000040800000200000025
:0c0b400082000000010000000000000026
:020000040000fa
:020000040005f5
:045e0000ffff0000a0
:020000040000fa
:020000040005f5
:045e2000ffffff0081
:020000040000fa
:020000040005f5
:045e3000f8ffff0078
:020000040000fa
:020000040005f5
:045e3800bfffff00a9
:020000040000fa
:020000040005f5
:045e40009fffff00c1
:020000040000fa
:020000040005f5
:045e4800ffffff0059
:020000040000fa
:020000040005f5
:045e5000ffffff0051
:020000040000fa
:020000040005f5
:045e5800ffffff0049
:00000001FF
